:020000040800F2
:10000000800D002079020008BB350008312F000860
:10001000B93500086F0400084540000800000000E2
:10002000000000000000000000000000BF350008D4
:10003000E104000800000000BD350008C1350008DB
:10004000930200089302000893020008930200083C
:10005000930200089302000893020008930200082C
:10006000930200089302000893020008710400083C
:10007000930200089302000893020008930200080C
:1000800093020008930200089302000893020008FC
:1000900093020008930200089302000893020008EC
:1000A00093020008930200089302000893020008DC
:1000B00093020008930200089302000893020008CC
:1000C00093020008930200089302000893020008BC
:1000D00093020008930200089302000893020008AC
:1000E000930200089302000893020008930200089C
:1000F000930200089302000893020008930200088C
:10010000930200089302000893020008930200087B
:10011000930200089302000893020008930200086B
:10012000930200089302000893020008930200085B
:10013000930200089302000893020008930200084B
:10014000930200089302000893020008930200083B
:10015000930200089302000893020008930200082B
:10016000930200089302000893020008930200081B
:10017000930200089302000893020008930200080B
:1001800093020008930200089302000893020008FB
:100190009302000800000000930200089302000888
:1001A00093020008930200089302000893020008DB
:1001B00093020008930200089302000893020008CB
:1001C00093020008930200089302000893020008BB
:1001D000930200089302000800F002F800F03CF8D7
:1001E0000AA090E8000C82448344AAF10107DA4592
:1001F00001D100F031F8AFF2090EBAE80F0013F0A8
:10020000010F18BFFB1A43F0010318473C400000E0
:100210005C400000103A24BF78C878C1FAD8520771
:1002200024BF30C830C144BF04680C607047000070
:100230000023002400250026103A28BF78C1FBD8EF
:10024000520728BF30C148BF0B6070471FB503F08D
:10025000D5FF1FBD10B510BD00F0CFF81146FFF758
:10026000F5FF03F000FF00F0EDF803B4FFF7F2FF35
:1002700003BC00F0F5F80000094880470948004732
:10028000FEE7FEE7FEE7FEE7FEE7FEE7FEE7FEE746
:10029000FEE7FEE704480549054A064B70470000A3
:1002A00029360008D901000880030020800D0020B5
:1002B000800500208005002053EA020C00F06980D0
:1002C0002DE9F04B4FF00006002B1FBFB3FA83F56A
:1002D00003FA05F424FA05F65E4012BF1643B2FA9B
:1002E00082F502FA05F4C5F120051EBF22FA05FCCD
:1002F00044EA0C04203556EA044C4FEA144418BF73
:10030000641C4FF000084FF00009904271EB030CA1
:1003100039D3002919BFB1FA81F701FA07F6B0FA0B
:1003200080F700FA07F6C7F120071EBF20FA07FC86
:1003300046EA0C062037B6FBF4FCA7EB0507103F96
:1003400007F01F0BCBF120060CFA0BFB2CFA06F67C
:1003500044BFB3460026202FA4BF5E464FF0000BDB
:100360005BEA060C08BF4FF0010B19EB0B09ABFB66
:10037000027C48EB0608C01B06FB02CC0BFB03CC3F
:1003800071EB0C01C1E70B46024641464846BDE809
:10039000F08B13B54FF000004FF00001AFF3008079
:1003A000BDE81C4070474FF0000200B5134694466C
:1003B0009646203922BFA0E80C50A0E80C50B1F1BD
:1003C0002001BFF4F7AF090728BFA0E80C5048BFD1
:1003D0000CC05DF804EB890028BF40F8042B08BF6F
:1003E000704748BF20F8022B11F0804F18BF00F86B
:1003F000012B7047704770477047754600F02CF826
:10040000AE4605006946534620F00700854618B001
:1004100020B5FFF73FFFBDE820404FF000064FF04A
:1004200000074FF000084FF0000B21F00701AC4629
:10043000ACE8C009ACE8C009ACE8C009ACE8C00948
:100440008D46704710B50446AFF300802046BDE8E6
:100450001040FFF70ABF0000004870471C0300204F
:1004600001491820ABBEFEE7260002007047FEE7F8
:10047000014800F071BC0000BC0200200D49026878
:100480008A4201D20C4901E00B492031D2B2142337
:10049000083AB2FBF3F2436C02F01F0223F00303AD
:1004A0001944816404498031C1640121914001658E
:1004B0007047000008040240000802400179074A22
:1004C00002EB81024265054A4432491E826501F011
:1004D0001F0201219140C16570470000FC080240E5
:1004E000704772B6FEE700002DE9F04F044690F821
:1004F00058009BB00F464FF0000B012812D001208E
:1005000084F8580000261796189620684FF0A048E7
:10051000DFF81C91DFF81CA1474D404506D1284665
:10052000009508E002201BB0BDE8F08F48450AD1D5
:100530005046CDF800A002F00AFD0090206802F0BD
:1005400006FD40B109E0E06D40F02000E06584F870
:1005500058600120E7E7009850B1E06D40F02000BE
:10056000E0654FF0010B00BF84F858605846DAE7A9
:1005700020684146884201D0A84201D12F4800E0BE
:100580002F48D7F800C02F4B40F61F72BCF1000F68
:100590002DD0D0F808C094F838802CF4604C4CEA88
:1005A000483CD7F804804CEA080CC0F808C0D4F8DE
:1005B00000C08C4501D0AC4504D18968AB6801F01E
:1005C000010109E0D9F80810DAF8085001F001013A
:1005D00005F001059B68294303F001031943C3D1CA
:1005E000BB68396819438368934319431DE08768E2
:1005F00027F46047876027688F4201D0AF4204D15B
:100600008968AB6801F0010109E0D9F80810DAF84F
:10061000085001F0010105F001059B68294303F032
:1006200001031943A0D18168914381609CE70000D8
:10063000000400500005005000010050000300506D
:1006400000070050000600502DE9F84F002704462F
:10065000009790F85800DFF81C840D46B946012831
:1006600011D0012684F85860206802F06CFC60B15B
:10067000E06D40F02000E0655FF0010784F85890DD
:100680003846BDE8F88F0220FBE7D5E900210C23AE
:10069000206803EA91131844036B01F01F014FF027
:1006A0001F0C0CFA01FCC2F3846223EA0C038A409B
:1006B00013430363206802F046FC8246206802F080
:1006C0003EFC5AEA00003CD1AA6829682068B2F1D1
:1006D000004F37D002F03FFC2068416921F0004113
:1006E000416120686969C268C2F3C1025200914049
:1006F0002A69042A31D000EB82002B68026EDFF8F1
:1007000078C303F0F84302EA0C020B431A4342F0A9
:100710000041016622682869A96902EB8000026E27
:1007200022F080720A430266297F22682869012923
:1007300010D0002102EB8000026E22F000720A430A
:1007400002667DE0002202F006FC2068416941F06B
:100750000041C5E74FF00071ECE7002102F0E9FB32
:10076000400320684FF0000172D002F0E2FB90FAE3
:10077000A0F0B0FA80F1286842036ED090FAA0F0A1
:10078000B0FA80F0814204D100221146206802F0C4
:10079000F1FB0121206802F0CCFB400320684FF000
:1007A00001015DD002F0C5FB90FAA0F0B0FA80F133
:1007B0002868420359D090FAA0F0B0FA80F0814244
:1007C00004D100220121206802F0D4FB022120681C
:1007D00002F0AFFB400320684FF0020148D002F066
:1007E000A8FB90FAA0F0B0FA80F12868420344D048
:1007F00090FAA0F0B0FA80F0814204D100220221E8
:10080000206802F0B7FB0321206802F092FB40034E
:1008100020684FF0030133D002F08BFB90FAA0F078
:10082000B0FA80F1286842032FD090FAA0F0B0FA15
:1008300080F0814204D100220321206802F09AFB5B
:100840002068816811F0010F22D0ACE000E004E0E4
:1008500002F06FFBC0F384618DE7C0F3846091E721
:1008600002F067FBC0F38461A2E7C0F38460A6E7EF
:1008700002F05FFBC0F38461B7E7C0F38460BBE7BD
:1008800002F057FBC0F38461CCE7C0F38460D0E78B
:100890002A7B296850F8B03FC1F3120C23EA0C03FD
:1008A00002F0180C754A22FA0CF20A401343036056
:1008B000E968414577D1286841031CD090FAA0F13E
:1008C000B1FA81F1491C01F01F0109294FEA4031B9
:1008D00032D8002912D000BF90FAA0F1B1FA81F10C
:1008E00001F1010101F01F0106FA01F609D100BF73
:1008F000C0F3846109E0C0F38461E3E7C0F384617D
:10090000EEE790FAA0F1B1FA81F101F1010101F0F5
:100910001F0146EA816102D1C0F3846003E090FACE
:10092000A0F0B0FA80F000F1010000F01F0000EB31
:10093000400041EA005132E000290ED090FAA0F1C7
:10094000B1FA81F101F1010101F01F0106FA01F68E
:1009500006D100BFC0F3846106E0C0F38461F1E713
:1009600090FAA0F1B1FA81F101F1010101F01F014A
:1009700046EA816102D1C0F3846003E090FAA0F0FE
:10098000B0FA80F000F1010000F01F003C4A00EBDB
:10099000400002EB005041EA000141F00071AA68FA
:1009A000206802F0D8FA37482B6803423FF466AE5D
:1009B00021684FF0A04C3448344E354D614501D08C
:1009C000A94201D1024600E032469268DFF8C480B5
:1009D00002F0E072434503D0DFF8BC80434521D1EB
:1009E0005FEA02281ED4614506D02C4B99427FF461
:1009F00045AEA94200D0304642F40001826822F0A0
:100A0000E0720A438260264826490068B0FBF1F094
:100A1000401C00EB4000800000E0401E00900028D9
:100A2000FBD12BE6DFF8808043450FD15FEAC21887
:100A30000CD4A94202D11D4B9942F2D0614502D09B
:100A4000A94200D0304642F080710CE0DFF86080AF
:100A50004345E6D15302E4D4A942E2D0614500D037
:100A6000304642F48001826822F0E0720A438260DC
:100A700004E6000000007F4000F0FF03FFFF0700D6
:100A8000000020FE00000880000300500007005016
:100A900000010050000021C31000C090000600506B
:100AA0001C000020400D0300000052C7000500504C
:100AB000000084CBF8B54FF0000504002E460095E9
:100AC00002D0E06D10B107E00120F8BD204600F033
:100AD00009F9266684F8586020688168C1F340717E
:100AE00019B18168734A1140816020688168C1F33F
:100AF000007189B98168704A114041F0805181606C
:100B00006E486F490068B0FBF1F04000801C00E0C7
:100B1000401E00900028FBD120688168C1F300715D
:100B200041B9E16D41F01001E165216E41F0010133
:100B30002166012502F007FAE16DC90600D430B143
:100B4000E06D40F01000E06501252846F8BDE06D3D
:100B500020F4807040F00200E0652068816811F0A8
:100B6000010F27D14FF0A043564A984201D090423E
:100B700004D19968966801F001010AE05249896838
:100B8000524E01F00101B66806F001063143504EA5
:100B9000B66806F0010631430CD1984201D090426C
:100BA00001D14C4800E04C486168826822F47C1214
:100BB0000A438260E168E06B627F0843A16841EA12
:100BC0004231084394F8241040EA0140012904D13D
:100BD000218D424A02EB41410843E16A29B101F407
:100BE0007871226B014342EA01002268D1683C4BD4
:100BF00019400143D16020680169626B21F04061B6
:100C000011430161206802F09AF970BB207F94F8CB
:100C100038102268800340EA4100D16844F20203A0
:100C200099430143D16020690028206801690AD0F6
:100C300041F480310161206850F8C01F22696FF3D0
:100C40000D01114307E021F480310161206850F863
:100C5000C01F6FF30D01016094F8400001280CD013
:100C60002068016921F001010161606901282068A3
:100C7000016B21F00F0111D013E0D4E911010843F9
:100C8000D4E913121143084321680A6940F2FC7346
:100C90009A43104340F001000861E6E7226A521EC1
:100CA00011430163E06D20F0020040F00100E065B7
:100CB0004BE70000C0FFFF5FC0FFFF7F1C0000206C
:100CC000400D0300000100500004005000050050DA
:100CD0000006005000030050000700500000FEFF17
:100CE0000740F0FF10B59CB00446142115A8FFF78B
:100CF0005AFB54216846FFF756FB2068B0F1A04F1D
:100D000026D14FF40040009080031190684600F017
:100D1000F9FE08B1FFF7E5FB0E48C16C41F4005144
:100D2000C164C16C01F400511A91C16C41F0010120
:100D3000C164C06C15A900F001001A900120159043
:100D400003201690002017904FF0904000F0C2F85A
:100D50001CB010BD00100240F0B4016C0C680168BA
:100D60000D6890F8442002F01F06042202FA06F3F0
:100D7000234211D06B070FD50B689B0603D40B6879
:100D800023F004030B6090F8441001F01F018A4027
:100D9000016C4A60016B1DE0022303FA06F727424B
:100DA0004FF0000C4FF0010218D0AF0716D50C68B9
:100DB000A40605D40C6824F00A040C6080F82520F1
:100DC00090F8441001F01F018B40016C4B6080F8DB
:100DD00024C0C16A00291AD0F0BC08470823B340D8
:100DE000234214D02B0712D50B6823F00E030B609F
:100DF00090F84410036C01F01F0102FA01F15960F0
:100E0000C26380F8252080F824C0416BE2E7F0BC83
:100E10007047000070B504000CD02B4A21681420E4
:100E2000914209D2294A0A44B2FBF0F08000606482
:100E300027480AE0012070BD234A52420A44B2FB0F
:100E4000F0F080006064204808382064022084F8B4
:100E500025000A6847F6F0708243D4E9020318437C
:100E6000D4E904352B431843A3691843E3691843B5
:100E7000236A1843104308602046FFF7FFFAA06872
:100E80000025B0F5804F00D16560A16C2079086025
:100E9000D4E9130141606068401E032808D8204649
:100EA000FFF70CFB606D0560D4E91601416002E0BC
:100EB0006565A565E565E563012084F8250084F88E
:100EC0002450002070BD000008040240F8FFFDBF60
:100ED000000002402DE9F04FDFF8209200230126A8
:100EE0000324A9F1040B85B00F2709F1040AABF123
:100EF000040EFAE006FA03F52A407CD091F804C00B
:100F00000CF0030CBCF1010F02D0BCF1020F26D192
:100F1000D0F808C0CDF800C04FEA430C04FA0CF832
:100F2000CDF810C0DDF800C02CEA080CCDF800C0E8
:100F3000D1F80C80DDF810C008FA0CF8DDF800C01C
:100F400048EA0C08C0F80880D0F804C02CEA050C68
:100F50000D79C5F300159D4045EA0C0545600D79F6
:100F6000ED43AD070ED0C5684FEA430804FA08FC0C
:100F700025EA0C05D1F808C00CFA08FC4CEA050C6F
:100F8000C0F80CC00D7905F00305022D16D1DD085F
:100F900000EB850CCDF808C0DCF820805D074FEA37
:100FA000D56C07FA0CF528EA05080D6905FA0CF569
:100FB000DDF808C045EA0805CCF8205005684FEA7E
:100FC000430CCDF808C004FA0CFC25EA0C0591F896
:100FD00004C00CF00308DDF808C008FA0CF848EA71
:100FE0000508C0F800804D6815F4403F7CD0444DA2
:100FF000D5F860C000E077E04CF0010CC5F860C0A7
:101000002D6E23F0030C05F0010500953D4D654460
:101010000295AD684FEA837C4FEA1C7807FA08FC1A
:1010200025EA0C05B0F1904F06D0DFF8DCC0604532
:1010300005D14FF0010C20E04FF0000C1DE0DFF86F
:10104000CCC0604502D14FF0020C16E0DFF8C0C002
:10105000604502D14FF0030C0FE0DFF8B8C06045E7
:1010600002D14FF0040C08E0DFF8ACC0604502D1BB
:101070004FF0050C01E04FF0060C0CFA08FC4CEAAE
:10108000050C029DC5F808C0D9F80050CC46D1F82F
:10109000048095435FEAC82800D51543CCF800507A
:1010A000DAF80050D446D1F8048095435FEA8828E6
:1010B00000D51543CCF80050DBF80050DC46D1F8E1
:1010C000048095435FEA883800D51543CCF800507A
:1010D000DEF80050F446D1F8048095435FEAC83842
:1010E00000D51543CCF800505B1C0A6832FA03F5B2
:1010F0007FF400AF05B0BDE8F08F000008040140A8
:1011000000100240000001400004004800080048B0
:10111000000C004800100048001400480148806896
:10112000704700001000002010B590F8DC20012A64
:1011300021D0012280F8DC20022380F8DD304B1C16
:101140001BD00368D3F8CC4344F00204C3F8CC436B
:101150000368D3F8CC4324F00C040C43C3F8CC430D
:101160000168D1F8CC3343F00103C1F8CC3380F8E7
:10117000DD20002010BD022010BD0168D1F8CC3365
:1011800023F00203C1F8CC33EAE7000070B590F811
:10119000DD30022B3CD090F8DC30012B38D001251B
:1011A00000F8DC5F022343701388948803F4E05353
:1011B000C4F308041C4313896FF07E4603F40073E4
:1011C0002343148A04F480441C43938903F40043AA
:1011D0002343948A06EA04441C43936903F0007392
:1011E0002343146AD26904F080441C4302F0004295
:1011F000224350F8DC3CB82404EBC1141959054EC5
:10120000314011431951457000210170084670BDED
:10121000022070BD0020003C38B5040056D00220EA
:1012200084F8DD000025C4F8E050C4F8E450C4F8A8
:10123000E850C4F8EC50C4F8F050C4F8F450C4F8C6
:10124000F850207AC0071BD021492068884208D175
:101250002048016E41F080610166006E00F0806000
:1012600000902168086820F44042208A00F4404041
:10127000104320F44052A08A00F44050104308600C
:10128000204600F029F8207A800708D521680868F0
:1012900020F44072A08900F44070104308600120DF
:1012A00084F8DD0084F8DC505FF00001C1EBC10080
:1012B00004EB8000491C8561C56105624562856259
:1012C000C9B205630629F1D9002038BD012038BD17
:1012D000006801400010024008B5006806498842D5
:1012E00008D10648016E41F080610166006E00F091
:1012F0008060009008BD00000068014000100240BE
:10130000F0B587B0044614216846FFF74CF816493B
:101310002068884225D11548C16C41F00201C164A2
:10132000C16C01F002010591C16C41F00101C16481
:10133000C06C022400F0010005904FF470400025BD
:1013400003260D278DE8F10069460948FFF7C2FD25
:101350004FF470608DE8F10069464FF09040FFF760
:10136000B9FD07B0F0BD0000006801400010024068
:101370000004004870B50D460446FFF7CFFE064650
:1013800007E0681C05D0FFF7C9FE801BA8420DD8F6
:1013900065B12068D0F88803C043C003F1D40120B0
:1013A00084F8DD00002084F8DC0070BD072084F89C
:1013B000DD00032070BD70B590F8DD30022B23D026
:1013C000022380F8DD30062920D08023046803EB57
:1013D000C115635923F007069368334323F01806B9
:1013E000D368334363519425046805EBC115136832
:1013F00063519824036804EBC11152685A500121CB
:1014000080F8DD10002070BD022070BD03681968EF
:1014100021F007049168214321F01804D168214389
:101420001960036811685961516802689161E6E7C3
:101430002DE9F04F90F8DD40022C25D090F8DC40EB
:10144000012C21D04FF0010980F8DC90022480F8B3
:10145000DD4000274FF0070C062918D09C2404EB30
:10146000C116012A39D08024A8254FF4005A4FF420
:10147000405B05EBC11504EBC114022A2FD0042AEE
:1014800045D0082A0BD144E00220BDE8F08F012AA4
:101490000AD0022A0CD0042A0ED0082A10D080F8D4
:1014A000DDC080F8DC700EE002681968D1610AE0E6
:1014B00002681968516206E002681968916202E0E8
:1014C00002681968D16290F8DD10072948D080F8C9
:1014D000DD9080F8DC700020D7E7196835E04FF028
:1014E000A408D0F800C008EBC1111A684CF801201C
:1014F0005968002901680A5922F440522ED00A5135
:1015000001680A59D3F804C042EA0C0218E01968CD
:1015100021E04FF0AC08D0F800C008EBC1111A6808
:101520004CF801205968002901680A5922F4404208
:1015300014D00A5101680A59D3F804C042EA8C0257
:101540000A515968514503D1996802689151BAE727
:101550005945B8D1996802685151B4E70A51B2E7C8
:10156000012092E710B590F8DC20012A0ED001226C
:1015700000F8DC2F0223437050F8DC3C1C680C435D
:101580001C60427000210170084610BD022010BD91
:1015900070B5044690F8DD00022811D094F8DC0004
:1015A00001280ED0012584F8DC50022084F8DD00EB
:1015B000204601F080FB84F8DD50002084F8DC0038
:1015C00070BD022070BD10B590F8DC20012A10D04B
:1015D000012200F8DC2F0223437050F8DC3CD3F8E2
:1015E00094430C43C3F894434270002101700846B1
:1015F00010BD022010BD2DE9F041044690F8DD0039
:1016000015460E46022826D094F8DC00012821D089
:10161000012784F8DC70022084F8DD00062E1CD03F
:10162000204601F0B7FBC6EBC60004EB800029683A
:10163000016269684162A9688162E968C1622969D9
:1016400001633146204601F0B9FA062E15D0E86A4A
:1016500040B112E00220BDE8F0811146204601F0C1
:10166000E1FAE0E78021206801EBC6114258EB6DFA
:1016700022F4007242EA4322425084F8DD700020D6
:1016800084F8DC00E7E72DE9F041044690F8DD003E
:10169000022824D094F8DC0001281FD0012584F80A
:1016A000DC50022084F8DD00EC20266800EBC1133A
:1016B000F058176820F0100040EA071020F4801757
:1016C0005068384320F48037D068384320F400371E
:1016D000906838439769012F03D00CE00220BDE8E1
:1016E000F08120F004071069384320F002075069A8
:1016F000384340F00100F050204601F05FFA84F8D2
:10170000DD50002084F8DC00E9E790F84120202A31
:1017100024D190F84020012A20D0012280F84020D6
:10172000242280F841200268136823F0010313602B
:101730000268136823F480531360026813680B4334
:10174000136001680A6842F001020A60202180F8F3
:101750004110002180F84010084670470220704771
:1017600090F84120202A22D190F84020012A1ED052
:10177000012280F84020242280F84120026813686A
:1017800023F0010313600268136823F4706343EAD3
:101790000121116001680A6842F001020A602021FB
:1017A00080F84110002180F8401008467047022060
:1017B0007047000070B5040004D094F84100002583
:1017C00010B106E0012070BD84F84050204600F0C2
:1017D0004FF8242084F841002068016821F00101BD
:1017E00001606068216820F070600861206881688D
:1017F00021F400418160E0680128A06830D040F405
:10180000044021688860E0680228206841682AD086
:1018100021F40061416020684168144A114341602D
:101820002068C16821F40041C160D4E90401084383
:10183000A16940EA01202168C860D4E90701084392
:10184000216808602068016841F001010160656459
:10185000202084F84100256384F84250002070BDA8
:1018600040F40040CDE741F40061D3E7008000027E
:10187000F0B59BB00446142115A8FEF794FD542141
:101880006846FEF790FD20492068884239D1402003
:10189000002500900795684600F034F908B1FEF77E
:1018A00020FE1A4CE06C40F00100E064E06C00F0B7
:1018B00001001A90E06C40F00200E064E06C122637
:1018C00000F002001A9004274FF40040CDE916659D
:1018D000CDE91857159015A9B006FFF7FBFA80203F
:1018E000CDE91665CDE91857159015A90848FFF7F9
:1018F000F1FAA06D40F40010A065A06D00F4001096
:101900001A901BB0F0BD00000054004000100240CF
:1019100000040048024881684268114481607047B1
:101920001000002010B50024032000F073F80F20F1
:1019300000F008F808B1012401E000F025F8204685
:1019400010BD000070B50E4E05460024706898B1B9
:101950004FF47A71B1FBF0F00A490968B1FBF0F07D
:1019600000F09AFD40B9102D06D200222946501EE3
:1019700000F030F8356000E00124204670BD000022
:10198000100000201C0000200A4882B0016E41F0C7
:1019900001010166016E01F001010091816D41F0CC
:1019A00080518165806D00F08050009002B000F0A1
:1019B000A1B8000000100240002809DB00F01F025F
:1019C000012191404009800000F1E020C0F80011A1
:1019D00070470000F0B40E4B1B680C46C3F30223A3
:1019E000C3F10705042D00D90425191D072901D2CB
:1019F000002300E0DB1E012606FA05F1491E214006
:101A000099409E40761E16403143F0BC02F01BBB4D
:101A10000CED00E0064900F0070208684FF6FF03EE
:101A2000184040EA0220034A104308607047000053
:101A30000CED00E00000FA052B492C4B0A6832211E
:101A40004A432B4940B1B0F5007F086829D020F403
:101A5000C06040F480602CE00868C0F34120022898
:101A600004D051F8800F20F4807022E0D1F880007B
:101A700020F48070C1F88000086820F4C06040F451
:101A800000700860B2FBF3F0401C00E0401E4A69A1
:101A9000520501D50028F9D1486940050AD503202F
:101AA0007047C0F34120022806D051F8800F40F45F
:101AB0008070086000207047D1F8800040F480708A
:101AC000C1F88000086820F4C06040F4007008602D
:101AD000B2FBF3F0401C00E0401E4A695205DBD522
:101AE0000028F9D1D8E700001C00002040420F0078
:101AF000007000400248816841F480418160704775
:101B0000007000402DE9F843044600680026BB4DF4
:101B100000035ED5A86D0027C00008D4A86D40F072
:101B20008050A865A86D012700F080500090DFF874
:101B3000D092D9F8001041F48071C9F80010FFF775
:101B4000EDFA804606E000BFFFF7E8FAA0EB0800D8
:101B500002282BD8D9F80000C005F5D5D5F890009B
:101B600010F4407014D0216D814211D0D5F890004E
:101B7000D5F8901020F4407041F48031C5F89010F1
:101B8000D5F8901021F48031C5F89010C5F8900078
:101B9000C00711D0FFF7C2FA804641F2883907E04A
:101BA000FFF7BCFAA0EB0801494501D903260BE079
:101BB000D5F890008007F3D5D5F89000216D20F47A
:101BC00040700843C5F890001FB1A86D20F0805008
:101BD000A8652078C00707D0D5F88800616820F094
:101BE00003000843C5F888002078800707D5D5F89A
:101BF0008800A16820F00C000843C5F88800207810
:101C0000400707D5D5F88800E16820F03000084388
:101C1000C5F888002078000707D5D5F88800216925
:101C200020F0C0000843C5F888002078C00607D51A
:101C3000D5F88800616920F440700843C5F8880031
:101C40002078800607D5D5F88800A16920F4406087
:101C50000843C5F888002078400607D5D5F88800E5
:101C6000E16920F440500843C5F888002078000658
:101C700007D5D5F88800216A20F440400843C5F80C
:101C800088002088C00507D5D5F88800616A20F44F
:101C900040300843C5F888002068800307D5D5F890
:101CA0009C00A16A20F003000843C5F89C0020882E
:101CB000800507D5D5F88800E16A20F44020084364
:101CC000C5F88800208840050FD5D5F88800216B1D
:101CD00020F440100843C5F88800206BB0F5801F41
:101CE00003D1E86840F48010E860208800050FD533
:101CF000D5F88800616B20F440000843C5F88800DF
:101D0000606BB0F5800F03D1E86840F48010E860A4
:101D10002088C0040FD5D5F88800A16B20F0407052
:101D20000843C5F88800A06BB0F1807F03D1E86854
:101D300040F48010E86020884FF0006180040ED5E8
:101D4000D5F88800E26B20F040601043C5F88800A9
:101D5000E06B884203D1E86840F48010E860208896
:101D600040040ED5D5F88800226C20F04060104366
:101D7000C5F88800206C884203D1E86840F48010E0
:101D8000E860208800040FD5D5F88800616C20F049
:101D900040500843C5F88800606CB0F1805F03D103
:101DA000E86840F48030E8602068C0030FD5D5F8BB
:101DB0008800A16C20F040400843C5F88800A06C62
:101DC000B0F1804F03D1E86840F48030E8602068CB
:101DD00040030FD5D5F89C00E16C20F44010084377
:101DE000C5F89C00E06CB0F5001F03D1E86840F432
:101DF0008010E8603046BDE8F88300000010024023
:101E0000007000402DE9F0470E4605004FF0000736
:101E100025D0DFF8AC81D8F8000000F00F00B04208
:101E20000CD2D8F8001021F00F013143C8F800108F
:101E3000D8F8000000F00F00B04210D12968614CC2
:101E4000C80741F2883A5AD06868DFF87C910328C5
:101E500008D0022820682DD0400500282CDB012066
:101E6000BDE8F08720688001F9D5E06800F0030242
:101E7000E068C0F30310401C032A19D0534A00BF86
:101E8000B2FBF0F0E268C2F306225043E268C2F30C
:101E90004162521C5200B0FBF2F0484517D9A068CD
:101EA00010F0F00F0CD0880711D5A86840B10EE0F3
:101EB000474AE5E78003D0E700F0B6F8484506D981
:101EC000A06820F0F00040F08000A0608027A068AB
:101ED000696820F003000843A060FFF71FF98146FE
:101EE00006E000BFFFF71AF9A0EB090151453AD807
:101EF000A068696800F00C00B0EB810FF2D128688F
:101F0000810714D5400703D5A06840F4E060A060C5
:101F10002878000705D5A06820F4605040F4E06000
:101F2000A060A068A96820F0F000084304E0802FBA
:101F300003D1A06820F0F000A060D8F8001040465F
:101F400001F00F01B14216D9016821F00F013143B0
:101F50000160FFF7E3F8074607E000BFFFF7DEF890
:101F6000C11B514501D903207AE7D8F8000000F0E1
:101F70000F00B042F2D12878400705D5A068E96883
:101F800020F4E0600843A0602878000706D5A06828
:101F9000296920F4605040EAC100A06000F044F8D4
:101FA000A1680C4AC1F30311515C01F01F01C84044
:101FB0000949086009480068BDE8F047FFF7C2BC5E
:101FC000002002400010024000B4C4040024F400C9
:101FD00000127A002E4200081C0000201000002091
:101FE0000548064900688968054AC1F30221515C29
:101FF00001F01F01C84070471C0000200010024083
:102000003E4200080548064900688968054AC1F350
:10201000C221515C01F01F01C84070471C00002024
:10202000001002403E420008184910B58868C0F30D
:1020300081021748012A0BD08A684310C2F381023B
:10204000022A06D08A68C2F38102032A03D0002044
:1020500010BD184610BDCA6802F00304CA68C2F376
:102060000312521C032C02D0B0FBF2F001E0B3FBD0
:10207000F2F0CA68C968C2F306225043C1F3416155
:10208000491C4900B0FBF1F010BD000000100240F7
:102090000024F4002DE9F84304007AD02078F84DAC
:1020A000C00747D0A868E96800F00C0001F0030100
:1020B0000C2802D0082817D001E0032914D060684A
:1020C000B0F5803F17D0B0F5A02F286817D020F4C6
:1020D00080302860286820F4802028606068E0B1A3
:1020E000FFF71CF8064614E02868800322D56068D4
:1020F0000028D2D01EE0286840F48030EDE740F49C
:1021000080202860F7E700BFFFF708F8801B6428ED
:1021100070D828688003F7D50CE0FEF7FFFF06466D
:1021200005E000BFFEF7FAFF801B6428F0D828689E
:102130008003F7D4207880074CD5A868E96800F0C0
:102140000C0001F003010C2802D004280DD001E09E
:1021500002290AD0E068002828682BD040F480705B
:102160002860FEF7DBFF064619E02868400502D527
:10217000E068002891D06868217C20F0FE4040EAA9
:1021800001606860BF480068FFF7DCFB002800D1F1
:1021900020E072E1FEF7C2FF801B0228B8D8286851
:1021A0004005F7D56868217C20F0FE4040EA0160D8
:1021B00068600FE020F480702860FEF7AFFF0646ED
:1021C00005E000BFFEF7AAFF801B0228A0D8286800
:1021D0004005F7D42078000729D560690028D5F894
:1021E000940013D040F00100C5F89400FEF796FF6C
:1021F000064606E090E000BFFEF790FF801B022835
:1022000086D8D5F894008007F6D510E020F00100BC
:10221000C5F89400FEF782FF064604E0FEF77EFF55
:10222000801B022878D8D5F894008007F6D420784F
:10223000400761D5A86D0026C00008D4A86D40F005
:102240008050A865A86D012600F0805000908E484F
:102250000168C90511D40168804641F480710160AC
:10226000FEF75CFF074604E0FEF758FFC01B02289C
:1022700052D8D8F80000C005F6D5A068012815D0BE
:102280000528D5F8900016D020F00100C5F8900080
:10229000D5F8900020F00400C5F89000A06841F245
:1022A0008838B8B1FEF73AFF07460EE0D5F890003F
:1022B00040F00100F0E740F00400C5F89000F5E7B9
:1022C000FEF72CFFC11B414526D8D5F890008007AA
:1022D000F6D50CE0FEF722FF074604E0FEF71EFFEE
:1022E000C11B414518D8D5F890008007F6D41EB11F
:1022F000A86D20F08050A8652078800629D5A069B7
:102300000028D5F8980013D040F00100C5F89800D7
:10231000FEF704FF064606E075E000BFFEF7FEFE8E
:10232000801B02286FD8D5F898008007F6D510E0FA
:1023300020F00100C5F89800FEF7F0FE064604E024
:10234000FEF7ECFE801B02285DD8D5F898008007C8
:10235000F6D4E069F0B3A968C1F3810103295DD027
:102360000228286820F08070286003D0FEF7D6FE8F
:1023700004464BE0FEF7D2FE064604E0FEF7CEFE32
:10238000801B02283FD828688001F7D4F4E90801AF
:102390006FF00F0202EB01110843218A5204490831
:1023A00002EB4151A26841EA02210843217D4FF02E
:1023B0007E42490802EB41610843217B40EAC1604B
:1023C000E968324A11400843E860286840F08070AC
:1023D000286000E05EE0E86840F08070E860FEF7AA
:1023E0009DFE044605E000BFFEF798FE001B022894
:1023F00009D828688001F7D54CE000BFFEF78EFEB3
:10240000001B022802D90320BDE8F8832868800158
:10241000F4D4E8681E490840E8603BE00128F3D0A6
:10242000E868226A00F00301914226D1616A00F057
:10243000F0020901103991421FD1A26A00F4FE4155
:10244000B1EB022F19D194F82C2000F07841B1EBB8
:10245000C26F12D1218E00F4C00249084905A1F5CE
:102460000011914209D194F8341000F0C06049087D
:102470004906A1F1007181420CD00120C4E700009F
:102480000010024010000020007000400C809F01EE
:10249000FCFFEEFE0020B7E710B5401EB0F1807FD4
:1024A00001D3012010BD4FF0E02460610F216017BF
:1024B00001F0C9FD0020A06107202061002010BDAF
:1024C00030B590F83C20012A45D0012280F83C200C
:1024D000CA688B6822F440721A434B6822F4806207
:1024E0001A430B6822F400621A430B6922F48052EB
:1024F0001A434B6922F400521A430B6B22F48042B8
:102500001A430B8B22F4702242EA0342CB6922F079
:1025100080521A43114D03680024AB4205D0104D80
:10252000AB4202D00F4DAB4210D10D8D22F47002A0
:1025300042EA05520D6A22F080722A434D6A22F067
:1025400000722A43C96A22F000520A435A6480F892
:102550003C40002030BD022030BD0000002C014076
:102560000034014000500140F0B590F83C20012AB1
:1025700043D0012580F83C50022280F83D200368BA
:102580005A689C681E4E1F4FDFF87CC0B34203D0D0
:10259000BB4201D0634504D122F4700E4A6842EA7E
:1025A0000E02DFF868E002EA0E02D1F800E04EEA1F
:1025B000020EC3F804E00268B24212D0B2F1804FBA
:1025C0000FD0134B9A420CD0124B9A4209D0124BA7
:1025D0009A4206D0BA4204D0104B9A4201D06245CA
:1025E00004D1896824F080031943916080F83D503C
:1025F000002180F83C100846F0BD0220F0BD00002C
:10260000002C014000340140005001408FFFFFFDCD
:102610000004004000080040000C00400040014061
:1026200010B5040003D094F83D0010B107E001207C
:1026300010BD002084F83C00204600F023F8022062
:1026400084F83D00211D206800F0F6FF012084F889
:10265000480084F83E0084F83F0084F8400084F885
:10266000410084F8420084F8430084F8440084F870
:10267000450084F8460084F8470084F83D000020B7
:1026800010BD000008B500680649884208D1064818
:10269000016E41F400610166006E00F4006000907C
:1026A00008BD0000002C01400010024070B5044637
:1026B00090F83C00002501281CD0012684F83C60DD
:1026C000022084F83D0022689068334B184020F4C3
:1026D0007F4090600868B0F5005F2ED016DC40287F
:1026E00049D009DCD0B1102818D0202816D03028C5
:1026F00049D113E0022070BD50282AD0602830D084
:1027000070280FD0B0F5805F3DD13DE010F00F0F85
:1027100039D10111A1F58031072934D82268014649
:10272000104625E0CB68D1E90121206800F0F6FFD2
:102730002068816841F0770109E0CB68D1E9012187
:10274000206800F0EBFF2068816841F480418160DF
:102750001AE0CA684968206801F0B4F9502120687D
:1027600006E0CA684968206801F0BDF96021206868
:1027700000F0DEFF08E0CA684968206801F0A2F9AD
:1027800040212068F4E7012584F83D60002084F8AA
:102790003C00284670BD000088FFCEFFF0B587B032
:1027A000044614216846FDF7FEFD21492068884251
:1027B0003CD12048C16C41F00401C164C16C01F0FE
:1027C00004010591C16C41F00201C164C06C022496
:1027D00000F0020005904FF4005000258DE8310014
:1027E0000420CDE90350144F69463846FEF772FBCA
:1027F000012600960320CDE90145CDE90304694691
:102800003846FEF767FB0094CDE90145CDE9035456
:1028100069463846FEF75EFB0096CDE90145062085
:10282000CDE9035069460548FEF754FB07B0F0BDFB
:10283000002C01400010024000080048000400483D
:1028400070B5044690F83C0000260D4601280BD0D8
:10285000012084F83C000C2A4AD007DC82B1042A0B
:1028600020D0082A06D131E0022070BD102A53D0B2
:10287000142A63D00126002084F83C00304670BD45
:10288000206800F05FFF2068816941F008018161E4
:102890002068816921F004018161206881692A69C9
:1028A000114311E0206800F0A3FF2068816941F422
:1028B000006181612068816921F480618161206803
:1028C00081692A6941EA02218161D4E7206800F028
:1028D000DFFF2068C16941F00801C1612068C1695A
:1028E00021F00401C1612068C1692A69114311E026
:1028F000206801F01DF82068C16941F40061C161E0
:102900002068C16921F48061C1612068C1692A69B8
:1029100041EA0221C161AEE7206801F059F8206860
:10292000016D41F0080101652068016D21F004018D
:1029300001652068016D2A69114311E0206801F0EA
:1029400083F82068016D41F4006101652068016D24
:1029500021F4806101652068016D2A6941EA022144
:10296000016588E710B5040003D094F83D0010B16C
:1029700007E0012010BD002084F83C00204600F054
:1029800022F8022084F83D00211D206800F054FE4A
:10299000012084F8480084F83E0084F83F0084F861
:1029A000400084F8410084F8420084F8430084F831
:1029B000440084F8450084F8460084F8470084F811
:1029C0003D00002010BD704790F88410012918D0F8
:1029D000012180F884102421C0F8881001680A6859
:1029E0000B6823F001030B6022F0005100224266C5
:1029F000036819602021C0F8881080F884201046F0
:102A000070470220704770B5044690F88400012892
:102A10001DD0012084F884002420C4F88800206898
:102A20000568026822F0010202602068826822F0D4
:102A300060620A438260204601F068F82068056001
:102A40002020C4F88800002084F8840070BD022093
:102A500070BD70B5044690F8840001281DD0012097
:102A600084F884002420C4F888002068056802687F
:102A700022F0010202602068826822F060420A436C
:102A80008260204601F042F8206805602020C4F8EA
:102A90008800002084F8840070BD022070BD10B54D
:102AA000040003D0D4F8880010B107E0012010BD65
:102AB000002084F88400204600F026F82420C4F882
:102AC00088002068016821F001010160A06A10B14E
:102AD000204601F03DF8204601F01EF90128E6D01D
:102AE0002068416821F4904141602068816821F0AC
:102AF0002A0181602068016841F0010101602046DF
:102B0000BDE8104001F088B870B59CB006461421AD
:102B100015A8FDF748FC54216846FDF744FC2249FE
:102B2000306888423DD10120009001906846FEF750
:102B3000E9FF08B1FDF7D5FC1C49086E40F4804060
:102B40000866086E00F480401A90C86C40F00400DB
:102B5000C864C86C002500F004001A90302015905D
:102B60000220CDE916050720CDE9185015A9104817
:102B7000FEF7B0F9104C0F4820601920606010205B
:102B8000C4E902058020C4E904052020C4E90650F8
:102B900020462562FEF73EF908B1FDF7A2FCF46776
:102BA000A6621CB070BD0000003801400010024059
:102BB0000008004808000240BC020020072930D26B
:102BC000DFE801F00A10161C222804000068D0F883
:102BD000841341F0010122E00068D0F8841341F031
:102BE00002011CE00068D0F8841341F0040116E0F3
:102BF0000068D0F8841341F0080110E00068D0F8B4
:102C0000841341F010010AE00068D0F8841341F009
:102C1000200104E00068D0F8841341F04001C0F8BE
:102C20008413704770B503681A68D3F8A0534C69D1
:102C300022F020022646144324F0C002202E2BD07E
:102C40008C69022C28D0032C2BD0042C2ED022F0FF
:102C5000E00200BF22F40064CA69224322F48064C7
:102C60000A6A224322F0C0644A6A224322F00064C6
:102C70008A6A2243CC6A22F0404242EA840222F06D
:102C800000544A6B096B224325F4803421431A60B7
:102C90000068C0F8A01370BD22F0C00242F020020C
:102CA000D8E722F0800242F04002D3E722F040024F
:102CB00042F08002CEE7F0B50024E426056806EB7A
:102CC000C11755F807C0B82606EBC116AE59402A01
:102CD00020D00EDC082A2CD006DC012A1AD0022AC9
:102CE00027D0042A31D115E0102A13D0202A2CD164
:102CF0001FE0B2F5007F1CD005DC802A19D0B2F5A8
:102D0000807F22D106E0B2F5806F03D0B2F5006F6C
:102D10001BD10EE04FF0BC0E0EEBC11E5A6845F8F9
:102D20000E204FF0C00E05680EEBC1119A686A5074
:102D30000BE0C42404EBC1145A682A51C825046866
:102D400005EBC1119A6862501024FE21A1401A6857
:102D50002CEA010CA240D96842EA0C02A1401143BE
:102D60001A69D3F814C01546A2400A430CFA04FCB1
:102D700099694CEA020CA14041EA0C01082D06D1E8
:102D8000B20504D4B20102D4DA69A240114300684A
:102D9000C151F0BD2DE9F04F8024036804EBC11749
:102DA000DC5924F07044DC510568EC59E82303EB4E
:102DB000C1139E4655F803C0E42303EBC1139B46A1
:102DC00055F803A0D5F8A033566924F02004344305
:102DD000202E24D09669022E21D0032E24D0042E3A
:102DE00027D024F4D07400BF24F40066D46934439F
:102DF00024F48066146A344324F0C066546A344371
:102E000024F00066946A344324F07046D46A344354
:102E1000566B24F40034B6F1005F0FD010E024F4B8
:102E2000C07444F02004DFE724F4807444F080048C
:102E3000DAE724F0800444F48074D5E744F40034E5
:102E400024F04008946B2CF03F0C264644EA08041A
:102E500024F48028946D44EA0804DFF8D08004EA62
:102E60000804D2F8508048EA040992F83C40D2F8AD
:102E7000408004F03F0444EA0C0424F0004448EA93
:102E80000408546C2AF4807C44EA0C04D2F848C04C
:102E9000BCF5606F02D0BCF5F05F01D1402E03D1CC
:102EA00024F4F0544CEA040424F48046D46C3443F3
:102EB000566D062927D2DFE801F003090F151B2103
:102EC000126B23F4003343EA42031CE0126B23F439
:102ED000802343EA820316E0126B23F4002343EAC3
:102EE000C20310E0126B23F4801343EA02130AE0DA
:102EF000126B23F4001343EA421304E0126B23F431
:102F0000800343EA821345F80790056845F80E8070
:102F1000056845F80B40D424026804EBC1115650F3
:102F20000068C0F8A033BDE8F08F0000FFFF06FE88
:102F3000FEE700EB8100006E00F0F840704780680B
:102F4000C0F3C00070478068C0F38000704780689D
:102F5000C0F380007047042303EAD15310B518442E
:102F60004369C1F3045107248C40A3438A401343AF
:102F7000436110BD00EB8100016E21F0004111435F
:102F80000166704730B58BB0002408940994202165
:102F900068460A94FDF707FA1E484FF0A041042541
:102FA00001604FF44031C0E90114C4600461C0E91C
:102FB0000545047744770121016280F824404FF4ED
:102FC000A461C1622902016380F83840C46380F8BB
:102FD0004040FDF76FFD08B1FDF783FA08A90D48E1
:102FE0000894FDF781FA08B1FDF77BFA0A480090D2
:102FF0000620CDE901047F200594CDE9030569464B
:103000000448FDF721FB002801D0FDF76AFA0BB058
:1030100030BD000020000020020030040D4808B53B
:10302000816C41F004018164816C01F00401009124
:10303000816C41F001018164806C002200F001008C
:10304000009011460B20FEF7C5FCBDE808400B20A0
:10305000FEF7B2BC00100240114808B5C16C41F047
:103060000401C164C16C01F004010091C16C41F024
:103070002001C164C16C01F020010091C16C41F0DC
:103080000101C164C16C01F001010091C16C41F00A
:103090000201C164C06C00F00200009008BD000095
:1030A0000010024070B5B8B00024339434943594C5
:1030B000602168463694FDF776F929942A941C21FC
:1030C0002CA82B94FDF76FF9242120A8FDF76BF9AC
:1030D000202118A8FDF767F9CA48C949C0E90014BA
:1030E0008460FEF799F808B1FDF7FBF90C21C5489B
:1030F000FEF71AF808B1FDF7F4F90A21C148FEF706
:1031000039F908B1FDF7EDF940F2A460CDE93304D7
:1031100005200825CDE9350533AA0621B948FEF773
:103120004AF908B1FDF7DDF90094019401200294F9
:10313000CDE90340059406940794C0060894CDE9B0
:1031400009408000CDE90C400B946A460621AD4849
:103150001794FEF750FA08B1FDF7C3F9C82029907B
:1031600029AB01220621A748FEF762F908B1FDF755
:10317000B8F94FF4C870299029AB02220621A14862
:10318000FEF756F908B1FDF7ACF94FF41670299027
:1031900029AB042206219B48FEF74AF908B1FDF746
:1031A000A0F94FF44870299029AB082206219548D0
:1031B000FEF73EF908B1FDF794F933AA00219148D2
:1031C000FEF7F9F808B1FDF78CF92C942F942CAA8E
:1031D00000218C483294FEF756FA08B1FDF781F9C8
:1031E00001944FF48076CDE9104600940F940E942C
:1031F0001294149415946A46002182481694FEF79E
:10320000FAF908B1FDF76DF96A4601217D48FEF72C
:10321000F2F908B1FDF765F96A4602217948FEF72F
:10322000EAF908B1FDF75DF96A4603217548129481
:10323000FEF7E1F908B1FDF754F940F25230299058
:1032400029AB012200216F48FEF7F2F808B1FDF723
:1032500048F94FF440602090CDE921542394CDE902
:1032600024452694279420AA002166482894FDF737
:103270008DFF08B1FDF735F920AA01216148FDF75E
:1032800085FF08B1FDF72DF920AA02215D48FDF761
:103290007DFF08B1FDF725F920AA03215948FDF764
:1032A00075FF08B1FDF71DF9CDE91846CDE91A54AF
:1032B0001C941D941E9418AB0122002151481F94A8
:1032C000FEF766F908B1FDF70CF94FF4007019909C
:1032D00018AB042201214B48FEF75AF908B1FDF75B
:1032E00000F94FF48060199018AB10220221454874
:1032F000FEF74EF908B1FDF7F4F84FF400601990AD
:1033000018AB402203213F48FEF742F908B1FDF710
:10331000E8F8199418AB022200213A481A94FEF7F3
:1033200037F908B1FDF7DDF818AB0822012135485F
:10333000FEF72EF908B1FDF7D4F818AB20220221D0
:103340003048FEF725F908B1FDF7CBF818AB80221D
:1033500003212C48FEF71CF908B1FDF7C2F833AA87
:1033600001212848FEF727F808B1FDF7BAF82CAA82
:1033700001212448FEF787F908B1FDF7B2F80122D0
:1033800029AB11461F48FEF753F808B1FDF7A9F81D
:1033900033AA02211B48FEF70EF808B1FDF7A1F889
:1033A0002CAA02211748FEF76EF908B1FDF799F82B
:1033B00029AB012202211348FEF73AF808B1FDF7C4
:1033C00090F833AA03210F48FDF7F5FF08B1FDF788
:1033D00088F82CAA03210B48FEF755F908B1FDF730
:1033E00080F829AB012203210648FEF721F808B135
:1033F000FDF777F80348FDF783FF38B070BD000094
:10340000006801408C000020134810B5114901608C
:103410001249416000210122C0E9021201614161AB
:103420008161C1610162FEF7C5F908B1FDF759F884
:1034300000210948FEF769F908B1FDF752F80021AB
:103440000548FEF78DF9002803D0BDE81040FDF7D0
:1034500048B810BD0054004088010020C285B24029
:1034600010B59CB0002419941A94179418941494CD
:1034700015941C210DA81694FCF795FF342168467D
:10348000FCF791FF31483049C0E9001440F2A361D4
:10349000C0E90241046144618461FFF7C1F808B1E9
:1034A000FDF71FF84FF48050179017A92748FFF732
:1034B000FDF808B1FDF715F82448FFF753FA08B1F5
:1034C000FDF70FF82020CDE9140414A91F48169425
:1034D000FFF74AF808B1FDF704F860200D9040F2BC
:1034E0005230CDE90E0410941194129400220DA9CB
:1034F00016481394FFF7A4F908B1FCF7F2FF042271
:103500000DA91248FFF79CF908B1FCF7EAFF0094F7
:103510004FF40050CDE90440019402940394C0029A
:103520000694CDE907404000CDE909040B946946B3
:1035300006480C94FEF7C4FF08B1FCF7D2FF03481D
:10354000FFF72CF91CB010BD002C0140DC0100205D
:10355000184810B5164901604FF4E131416000216F
:1035600081600C22C160C0E904128161C161016205
:1035700041628162FFF793FA08B1FCF7B2FF0021C4
:103580000C48FFF766FA08B1FCF7ABFF00210948C9
:10359000FFF739FA08B1FCF7A4FF0648FFF714FA61
:1035A000002803D0BDE81040FCF79BBF10BD000011
:1035B0000038014028020020FEE7FEE77047704710
:1035C000FEF7A8B910B594B038216846FCF7EBFEB9
:1035D00014210EA8FCF7E7FE0020FEF72DFA0120CB
:1035E00000900004019002200324CDE90704552136
:1035F000CDE909010B900C900D906846FEF74AFD4D
:1036000008B172B6FEE70F20CDE90E04002010903D
:103610001190129004210EA8FEF7F4FB002801D0AF
:1036200072B6FEE714B010BD0248016841F47001A3
:103630000160704788ED00E02DE9F04F02682E4BE5
:103640002E4E2F4FDFF8BCC02F4C304D4FF0804B2B
:1036500098420BD0584509D0B04207D0B84205D0A7
:10366000604503D0A04201D0A84204D122F07008E6
:103670004A6842EA0802DFF89880DFF89890DFF89D
:1036800098A0984211D058450FD0B0420DD0B84202
:103690000BD0604509D0A04207D0404505D0484531
:1036A00003D0504501D0A84203D122F44076CA6825
:1036B00032434E6922F08002324302608A68C2625D
:1036C0000A688262984209D0A04207D0404505D0DE
:1036D000484503D0504501D0A84201D10969016392
:1036E000012141610169C90703D0016921F001018C
:1036F0000161BDE8F08F0000002C01400004004093
:1037000000080040000C004000340140005001401F
:1037100000400140004401400048014010B5846869
:1037200042EA032224F47F440A432243826010BD0C
:103730008268034B1A400A4342F0070181607047D8
:103740008FFFCFFF2DE9F047056A026A22F00102E0
:103750000262436882691F4C25F0020522400C6812
:1037600022F0030214438A681C4E2A431A4D1C4F50
:10377000DFF870C0DFF87090DFF870A0A84209D0C1
:10378000B04207D0B84205D0604503D0484501D0CB
:10379000504506D122F00808CA6842EA080222F021
:1037A0000402A84209D0B04207D0B84205D0604513
:1037B00003D0484501D0504505D14D6923F44073ED
:1037C0001D438B692B4343608461496841630262F6
:1037D000BDE8F0878FFFFEFF002C01400034014060
:1037E00000400140004401400048014000500140B9
:1037F000F0B5056A026A22F010020262426883692B
:103800001C4C1E4E23400C6823F4407343EA0424EE
:1038100025F020038D681A4F43EA0513164DA84280
:1038200003D0B04201D0B84207D1D1F80CC023F088
:10383000800343EA0C1323F04003A8420CD0B042AB
:103840000AD0104DA84207D00F4DA84204D00F4D0A
:10385000A84201D0B84207D14D6922F4406242EA41
:1038600085028D6942EA850242608461496881630C
:103870000362F0BDFF8FFFFE002C014000340140C9
:103880000050014000400140004401400048014018
:10389000F0B5056A026A22F4807202624368C26966
:1038A0001C4C1E4E22400C6822F00302144325F4E7
:1038B00000728D681A4F42EA0522174DA84203D0C4
:1038C000B04201D0B84207D1D1F80CC022F4006256
:1038D00042EA0C2222F48062A8420CD0B0420AD004
:1038E000104DA84207D0104DA84204D00F4DA84259
:1038F00001D0B84207D14D6923F4405343EA051380
:103900008D6943EA05134360C4614968C16302627B
:10391000F0BD00008FFFFEFF002C0140003401408D
:103920000050014000400140004401400048014077
:10393000F0B5056A026A22F4805202624268C369E5
:103940001C4C1E4E23400C6823F4407343EA0424AD
:1039500025F400538D681A4F43EA0533164DA842EB
:1039600003D0B04201D0B84207D1D1F80CC023F443
:10397000004343EA0C3323F48043A8420CD0B04206
:103980000AD0104DA84207D00F4DA84204D00F4DC9
:10399000A84201D0B84207D14D6922F4404242EA20
:1039A00085128D6942EA85124260C46149680164EA
:1039B0000362F0BDFF8FFFFE002C01400034014088
:1039C00000500140004001400044014000480140D7
:1039D00030B5056A026A22F4803202624268036DE1
:1039E000124C23400C681C4325F400330D8943EA34
:1039F00005430F4DA8420ED00E4DA8420BD00E4DE0
:103A0000A84208D00D4DA84205D00D4DA84202D0C5
:103A10000C4DA84204D14D6922F4803242EA0522BD
:103A20004260046549688164036230BD8FFFFEFF18
:103A3000002C01400034014000400140004401409E
:103A4000004801400050014030B5046A026A22F487
:103A5000801202624268036D134D24F400142B405F
:103A60000D6843EA05230D8944EA05540F4DA84229
:103A70000ED00F4DA8420BD00E4DA84208D00E4DCF
:103A8000A84205D00D4DA84202D00D4DA84204D148
:103A90004D6922F4802242EA85224260036549682A
:103AA000C164046230BD0000FF8FFFFE002C0140A6
:103AB0000034014000400140004401400048014002
:103AC0000050014010B5036A046A24F00104046246
:103AD000846924F0F00444EA021423F00A020A4341
:103AE0008461026210BD10B5036A046A24F01004F8
:103AF0000462846923F0A00324F4704444EA02328F
:103B000043EA01118261016210BD000030B5416ECF
:103B1000B9B1026891689268C1F342610B4B520FD0
:103B20009C5CE50003F10804A25CB5FBF2F2A0F88E
:103B30006A205A5C615CD200B2FBF1F1A0F8681017
:103B400030BD0121A0F86A10F8E700001E4200080D
:103B500090F82810090706D501684A68836B22F49B
:103B600000421A434A6090F82810C90706D001683D
:103B70004A68C36A22F400321A434A6090F8281057
:103B8000890706D501684A68036B22F480321A431C
:103B90004A6090F82810490706D501684A68436BC7
:103BA00022F480221A434A6090F82810C90606D5EC
:103BB00001688A68C36B22F480521A438A6090F8C5
:103BC0002810890606D501688A68036C22F4005221
:103BD0001A438A6090F82810490611D501684A688E
:103BE000436C22F480121A434A60416CB1F5801F85
:103BF00006D101684A68836C22F4C0021A434A6005
:103C000090F82810090606D501684A68C06C22F4AD
:103C1000002202434A6070472DE9F843002604461B
:103C2000C0F89060FDF77AFA8046206800684FF08F
:103C3000200500076FF07E4713D543460022290474
:103C40002046009700F0B4F958B1216851E8000F00
:103C500020F0800041E80002002AF6D1C4F8885024
:103C600021E020680068400722D5434600224FF437
:103C700080012046009700F09BF9C8B1216851E807
:103C8000000F20F4907041E80002002AF6D120686D
:103C9000083050E8001F21F0010140E80012002A1E
:103CA000F5D1C4F88C5084F884600320BDE8F88313
:103CB000C4F88850C4F88C5044F86C6F666026765F
:103CC0000020F3E710B5026852E8001F21F490715C
:103CD00042E80013002BF6D10E4B0268083252E87E
:103CE000001F194042E80014002CF6D1C16E0129D2
:103CF00008D1016851E8002F22F0100241E80023AA
:103D0000002BF6D12021C0F88C100021C16641673C
:103D100010BD0000FEFFFFEF2DE9F04104460168F1
:103D200080682269E3691043626900251A431043E1
:103D3000DFF84CC20A68934B1A4002430A602068BD
:103D40004168E26821F44051114341602168A06953
:103D5000614501D0226A10438A688B4B1A400243A6
:103D60008A602068C16A626A21F00F011143C16252
:103D70008649236886488B420DD1D0F8880010F020
:103D8000030006D0012867D0022854D0032851D15F
:103D900064E001204FE07F498B420BD1D0F88800CE
:103DA00010F00C0047D0042845D0082852D00C2829
:103DB00040D153E078498B420BD1D0F8880010F005
:103DC000300038D0102847D0202843D0302831D1B7
:103DD00044E072498B420BD1D0F8880010F0C0004B
:103DE00029D0402838D0802834D0C02822D135E0CE
:103DF0006B498B420ED1D0F8880010F440701AD075
:103E0000B0F5807F28D0B0F5007F23D0B0F5407F9B
:103E100010D123E063450DD1D0F8880010F4406044
:103E200009D0B0F5806F17D0B0F5006F12D0B0F5A3
:103E3000406F13D010205B4A5B4F00264FF40041C7
:103E4000634539D160B102280DD004280DD008286F
:103E500031D10EE00220EEE70420ECE70820EAE78B
:103E6000FEF7BEF803E0114603E0FEF7DDF80100BF
:103E70007BD0606A37F810206768B1FBF2F007EB7F
:103E80004703834269D8B0EB073F66D80023084652
:103E90001946FCF711FA090241EA1061020278089A
:103EA000101871413A460023FCF706FA3F4AA0F584
:103EB0004071914257D950E0E3694FF6EF788B4259
:103EC0002BD1092849D2DFE800F005080D48254824
:103ED00048480E00FEF784F801E0FEF793F8010071
:103EE00001D142E01146606A37F81000B1FBF0F0F2
:103EF0004100606801EB5001B1FBF0F1A1F110004D
:103F000040452AD84FF6F07201EA0200C1F342019F
:103F1000084328E0FEF788F8E1E709281DD2DFE82A
:103F200000F005080D1C1E1C1C1C0E00FEF758F8A6
:103F300001E0FEF767F8010001D116E01146606A62
:103F400037F81000B1FBF0F1606801EB5001B1FBF4
:103F5000F0F0A0F11001414504D9012505E0FEF77C
:103F600063F8E8E780B22168C8600120A4F86A001D
:103F700024F8680F2846E6602661BDE8F08100005D
:103F800000800040F369FFCFFFF4FF1100380140CB
:103F9000001002400044004000480040004C004037
:103FA000005000400024F40006420008FFFC0F000F
:103FB0002DE9F047994617460D4604464FF0000894
:103FC000089E33E0701C31D0FDF7A8F8A0EB090083
:103FD000B04218D8BEB120680168490726D5802DA7
:103FE00024D0402D22D0C169C94309070DD408252A
:103FF00005622046FFF766FEC4F8905084F884807E
:104000000120BDE8F0870320FBE7C069C04300053D
:104010000CD421684FF4006008622046FFF752FE7E
:104020002020C4F8900084F88480ECE72068C06900
:1040300035EA000004D00020B842C3D00020E0E7F9
:104040000120F9E7FEE70907090E002804DB00F16B
:10405000E02080F80014704700F00F0000F1E0202D
:1040600080F8141D704708B5FDF75CFCFFF7AAFA4D
:10407000FEF7F2FFFEF7D2FFFFF7F2F9FFF7C4F900
:10408000FFF766FAFEF77EFFFFF70CF800F08CF8FA
:1040900014200146009028231E2240F2A46000F064
:1040A00001F8FEE72DE9F043B3B00D4604461E4685
:1040B00090460027602103A8DDF8E890FCF773F92B
:1040C00001971C212CA80297FCF76DF924211BA84D
:1040D000FCF769F9202124A8FCF765F94FF4B470C6
:1040E00004FB05F104FB08F2B1FBF0F1B2FBF0F2C6
:1040F0002B4D6B46C5E9001204FB06F2B2FBF0F251
:10410000AA6004FB09F2B2FBF0F0E8600091012222
:1041100006212448FDF78CF928686B4600EB540013
:104120000090012200211F48FDF782F96868009085
:104130006B46022206211B48FDF77AF968680122C6
:1041400000EB540000906B4611461648FDF770F9DD
:10415000A86800906B46042206211248FDF768F912
:10416000A8686B4600EB54000090012202210D4824
:10417000FDF75EF9E86800906B46082206210948C1
:10418000FDF756F9E8686B4600EB540000900122F9
:1041900003210448FDF74CF933B0BDE8F08300007B
:1041A000000000208C00002010B54FF4F8111248D8
:1041B000FDF7D8F901211048FDF705FA02210E4854
:1041C000FDF701FA04210C48FDF7FDF908210A4822
:1041D000FDF7F9F910210848FDF7F5F92021064807
:1041E000FDF7F1F940210448FDF7EDF9BDE8104075
:1041F00080210148FDF7E7B98C0000204FF04070A6
:10420000E1EE100A704701000200040006000800F9
:104210000A000C0010002000400080000001010195
:104220000103070100000804020408010101000065
:104230000000000000000102030406070809000056
:104240000000010203040000684200080000002092
:10425000200000001402000888420008200000200E
:10426000600D0000300200080000000000000000A7
:10427000000000000000000010000000010000002D
:08428000000000000024F4001E
:04000005080001D915
:00000001FF
