:020000040800F2
:10000000F812002079020008F3470008453F000875
:10001000F1470008510500085D530008000000008A
:10002000000000000000000000000000F74700088A
:100030007306000800000000F5470008F9470008B3
:10004000930200089302000893020008930200083C
:10005000930200089302000893020008930200082C
:10006000930200089302000893020008B9050008F3
:10007000C5050008930200089302000893020008D7
:1000800093020008930200089302000893020008FC
:1000900093020008930200089302000893020008EC
:1000A00093020008930200089302000893020008DC
:1000B00071480008930200089302000893020008A8
:1000C00093020008930200089302000893020008BC
:1000D00093020008930200089302000893020008AC
:1000E000930200089302000893020008930200089C
:1000F000930200089302000893020008930200088C
:10010000930200089302000893020008930200087B
:10011000930200089302000893020008930200086B
:10012000930200089302000893020008930200085B
:10013000930200089302000893020008930200084B
:10014000930200089302000893020008930200083B
:10015000930200089302000893020008930200082B
:10016000930200089302000893020008930200081B
:10017000930200089302000893020008930200080B
:1001800093020008930200089302000893020008FB
:100190009302000800000000930200089302000888
:1001A00093020008930200089302000893020008DB
:1001B00093020008930200089302000893020008CB
:1001C00093020008930200089302000893020008BB
:1001D000930200089302000800F002F800F03CF8D7
:1001E0000AA090E8000C82448344AAF10107DA4592
:1001F00001D100F031F8AFF2090EBAE80F0013F0A8
:10020000010F18BFFB1A43F00103184704670000F1
:1002100024670000103A24BF78C878C1FAD8520782
:1002200024BF30C830C144BF04680C607047000070
:100230000023002400250026103A28BF78C1FBD8EF
:10024000520728BF30C148BF0B6070471FB506F08A
:10025000A9FA1FBD10B510BD00F0E2F81146FFF776
:10026000F5FF05F029FD00F000F903B4FFF7F2FFF8
:1002700003BC00F003F90000094880470948004723
:10028000FEE7FEE7FEE7FEE7FEE7FEE7FEE7FEE746
:10029000FEE7FEE704480549054A064B70470000A3
:1002A00061480008D9010008F8080020F812002071
:1002B000F80A0020F80A002053EA020C00F06980D6
:1002C0002DE9F04B4FF00006002B1FBFB3FA83F56A
:1002D00003FA05F424FA05F65E4012BF1643B2FA9B
:1002E00082F502FA05F4C5F120051EBF22FA05FCCD
:1002F00044EA0C04203556EA044C4FEA144418BF73
:10030000641C4FF000084FF00009904271EB030CA1
:1003100039D3002919BFB1FA81F701FA07F6B0FA0B
:1003200080F700FA07F6C7F120071EBF20FA07FC86
:1003300046EA0C062037B6FBF4FCA7EB0507103F96
:1003400007F01F0BCBF120060CFA0BFB2CFA06F67C
:1003500044BFB3460026202FA4BF5E464FF0000BDB
:100360005BEA060C08BF4FF0010B19EB0B09ABFB66
:10037000027C48EB0608C01B06FB02CC0BFB03CC3F
:1003800071EB0C01C1E70B46024641464846BDE809
:10039000F08B13B54FF000004FF00001AFF3008079
:1003A000BDE81C4070474FF0000200B5134694466C
:1003B0009646203922BFA0E80C50A0E80C50B1F1BD
:1003C0002001BFF4F7AF090728BFA0E80C5048BFD1
:1003D0000CC05DF804EB890028BF40F8042B08BF6F
:1003E000704748BF20F8022B11F0804F18BF00F86B
:1003F000012B704770477047704710B500F008F840
:10040000006810BD10B5044600F002F8046010BD8D
:10041000004870479808002000487047980800205E
:100420007546FFF7F9FFAE4605006946534620F0D2
:100430000700854618B020B5FFF72CFFBDE8204027
:100440004FF000064FF000074FF000084FF0000B90
:1004500021F00701AC46ACE8C009ACE8C009ACE843
:10046000C009ACE8C0098D46704710B50446AFF32B
:1004700000802046BDE81040FFF7F7BE0149182074
:10048000ABBEFEE72600020070470000F8B5044648
:10049000002000902068816811F0010F4AD1816826
:1004A000254A114237D18168D5432940491C8160D2
:1004B0002068B0F1A04F02D02049884201D12048E5
:1004C00000E02048806800F0E07000020DD51E4872
:1004D0001E490068B0FBF1F0401C00EB40008000BA
:1004E00000E0401E00900028FBD101F00BFB064607
:1004F0001BE0816811F0010F03D181682940491C7C
:10050000816001F0FFFA801B02280ED92068006884
:10051000C043C00709D0E06D40F01000E065206ED8
:1005200040F0010020660120F8BD20680168C94341
:10053000C907DED10020F8BD3F0000800001005057
:10054000000300500007005020000020400D030071
:10055000FEE710B5846A204600F06EFF012020718E
:1005600010BD10B5846A204600F07CFE0120207189
:1005700010BD10B5846A206940F004002061204657
:1005800000F05CFF0120207110BD10B5846A206965
:1005900040F004002061204600F066FE012020713A
:1005A00010BD10B5806A00F048FF10BD10B5806A1C
:1005B00000F059FE10BD0000014801F07BB80000BA
:1005C00038080020014801F075B80000100500202F
:1005D0000D4902688A4201D20C4901E00B492031E1
:1005E000D2B21423083AB2FBF3F2436C02F01F02BA
:1005F00023F003031944816404498031C16401215B
:100600009140016570470000080402400008024064
:100610000179074A02EB81024265054A4432491ECC
:10062000826501F01F0201219140C1657047000001
:10063000FC08024030B5D0E913456560446D14B143
:10064000D0E91645656090F8444004F01F05012488
:10065000AC40056C6C60046863608368102B0368B1
:1006600003D099600068C26030BD9A600068C160C4
:1006700030BD704772B6FEE770B5254D00242DEDF4
:100680000A8B4FF400769FED188B9FED199B9FED21
:100690001AAB9FED1BBB9FED1CCB204605F063FE04
:1006A00053EC182B05F08AFE53EC192B05F086FE4F
:1006B00041EC100B04F07CFE53EC1A2B51EC100BA8
:1006C00005F0F4FB53EC1B2B05F078FE53EC1C2BD0
:1006D00005F074FE05F01AFE25F81400641CB442FF
:1006E000DBDBBDEC0A8B70BD182D4454FB21194097
:1006F000000000000000603F000000000000F03F2C
:100700000000000000FC9F409A9999999999E93F4F
:10071000240000202DE9F04F044690F858009BB0CB
:100720000F464FF0000B012812D0012084F858002A
:1007300000261796189620684FF0A048DFF81C9105
:10074000DFF81CA1474D404506D12846009508E03A
:1007500002201BB0BDE8F08F48450AD15046CDF8C5
:1007600000A003F0FEFB0090206803F0FAFB40B10C
:1007700009E0E06D40F02000E06584F85860012059
:10078000E7E7009850B1E06D40F02000E0654FF0E1
:10079000010B00BF84F858605846DAE720684146EC
:1007A000884201D0A84201D12F4800E02F48D7F855
:1007B00000C02F4B40F61F72BCF1000F2DD0D0F8B7
:1007C00008C094F838802CF4604C4CEA483CD7F8C8
:1007D00004804CEA080CC0F808C0D4F800C08C456E
:1007E00001D0AC4504D18968AB6801F0010109E092
:1007F000D9F80810DAF8085001F0010105F00105F8
:100800009B68294303F001031943C3D1BB683968CE
:1008100019438368934319431DE0876827F46047B1
:10082000876027688F4201D0AF4204D18968AB68E6
:1008300001F0010109E0D9F80810DAF8085001F0D8
:10084000010105F001059B68294303F001031943E9
:10085000A0D18168914381609CE7000000040050B2
:100860000005005000010050000300500007005038
:10087000000600502DE9F84F00270446009790F835
:100880005800DFF81C840D46B946012811D0012616
:1008900084F85860206803F060FB60B1E06D40F0C0
:1008A0002000E0655FF0010784F858903846BDE805
:1008B000F88F0220FBE7D5E900210C23206803EA2A
:1008C00091131844036B01F01F014FF01F0C0CFA39
:1008D00001FCC2F3846223EA0C038A4013430363DE
:1008E000206803F03AFB8246206803F032FB5AEAA4
:1008F00000003CD1AA6829682068B2F1004F37D0C7
:1009000003F03BFB2068416921F000414161206810
:100910006969C268C2F3C102520091402A69042A7F
:1009200031D000EB82002B68026EDFF878C303F051
:10093000F84302EA0C020B431A4342F000410166FD
:1009400022682869A96902EB8000026E22F0807299
:100950000A430266297F22682869012910D00021F4
:1009600002EB8000026E22F000720A4302667DE014
:10097000002203F002FB2068416941F00041C5E715
:100980004FF00071ECE7002103F0DDFA400320682E
:100990004FF0000172D003F0D6FA90FAA0F0B0FA4E
:1009A00080F1286842036ED090FAA0F0B0FA80F08F
:1009B000814204D100221146206803F0EDFA0121A2
:1009C000206803F0C0FA400320684FF001015DD0B9
:1009D00003F0B9FA90FAA0F0B0FA80F12868420367
:1009E00059D090FAA0F0B0FA80F0814204D10022F0
:1009F0000121206803F0D0FA0221206803F0A3FA55
:100A0000400320684FF0020148D003F09CFA90FAAE
:100A1000A0F0B0FA80F12868420344D090FAA0F028
:100A2000B0FA80F0814204D100220221206803F054
:100A3000B3FA0321206803F086FA400320684FF0E0
:100A4000030133D003F07FFA90FAA0F0B0FA80F1FE
:100A5000286842032FD090FAA0F0B0FA80F08142CB
:100A600004D100220321206803F096FA20688168EF
:100A700011F0010F22D0ACE000E004E003F063FAD3
:100A8000C0F384618DE7C0F3846091E703F05BFA03
:100A9000C0F38461A2E7C0F38460A6E703F053FAD1
:100AA000C0F38461B7E7C0F38460BBE703F04BFA9F
:100AB000C0F38461CCE7C0F38460D0E72A7B296867
:100AC00050F8B03FC1F3120C23EA0C0302F0180CEB
:100AD000754A22FA0CF20A4013430360E968414563
:100AE00077D1286841031CD090FAA0F1B1FA81F1C6
:100AF000491C01F01F0109294FEA403132D8002971
:100B000012D000BF90FAA0F1B1FA81F101F1010118
:100B100001F01F0106FA01F609D100BFC0F384619C
:100B200009E0C0F38461E3E7C0F38461EEE790FA83
:100B3000A0F1B1FA81F101F1010101F01F0146EAD2
:100B4000816102D1C0F3846003E090FAA0F0B0FAB2
:100B500080F000F1010000F01F0000EB400041EACE
:100B6000005132E000290ED090FAA0F1B1FA81F1E3
:100B700001F1010101F01F0106FA01F606D100BFE3
:100B8000C0F3846106E0C0F38461F1E790FAA0F15C
:100B9000B1FA81F101F1010101F01F0146EA816121
:100BA00002D1C0F3846003E090FAA0F0B0FA80F0C4
:100BB00000F1010000F01F003C4A00EB400002EB96
:100BC000005041EA000141F00071AA68206803F07A
:100BD000D4F937482B6803423FF466AE21684FF0E2
:100BE000A04C3448344E354D614501D0A94201D165
:100BF000024600E032469268DFF8C48002F0E072FC
:100C0000434503D0DFF8BC80434521D15FEA022889
:100C10001ED4614506D02C4B99427FF445AEA942C3
:100C200000D0304642F40001826822F0E0720A43AC
:100C30008260264826490068B0FBF1F0401C00EBBA
:100C40004000800000E0401E00900028FBD12BE611
:100C5000DFF8808043450FD15FEAC2180CD4A94267
:100C600002D11D4B9942F2D0614502D0A94200D079
:100C7000304642F080710CE0DFF860804345E6D1F9
:100C80005302E4D4A942E2D0614500D0304642F498
:100C90008001826822F0E0720A43826004E600006C
:100CA00000007F4000F0FF03FFFF0700000020FE70
:100CB00000000880000300500007005000010050B1
:100CC000000021C31000C09000060050200000204A
:100CD000400D0300000052C700050050000084CB07
:100CE0000068006C70470000F8B54FF00005040084
:100CF0002E46009502D0E06D10B107E00120F8BD4E
:100D0000204600F009F9266684F85860206881685A
:100D1000C1F3407119B18168734A11408160206844
:100D20008168C1F3007189B98168704A114041F04E
:100D3000805181606E486F490068B0FBF1F040005F
:100D4000801C00E0401E00900028FBD120688168D4
:100D5000C1F3007141B9E16D41F01001E165216E0F
:100D600041F001012166012503F0F7F8E16DC906A4
:100D700000D430B1E06D40F01000E0650125284658
:100D8000F8BDE06D20F4807040F00200E06520685E
:100D9000816811F0010F27D14FF0A043564A9842C5
:100DA00001D0904204D19968966801F001010AE0EF
:100DB00052498968524E01F00101B66806F00106F9
:100DC0003143504EB66806F0010631430CD19842CB
:100DD00001D0904201D14C4800E04C4861688268E3
:100DE00022F47C120A438260E168E06B627F084370
:100DF000A16841EA4231084394F8241040EA0140D6
:100E0000012904D1218D424A02EB41410843E16AA4
:100E100029B101F47871226B014342EA0100226892
:100E2000D1683C4B19400143D16020680169626B75
:100E300021F0406111430161206803F08AF870BB22
:100E4000207F94F838102268800340EA4100D1687E
:100E500044F2020399430143D160206900282068CD
:100E600001690AD041F480310161206850F8C01F47
:100E700022696FF30D01114307E021F48031016114
:100E8000206850F8C01F6FF30D01016094F8400016
:100E900001280CD02068016921F00101016160691D
:100EA00001282068016B21F00F0111D013E0D4E973
:100EB00011010843D4E913121143084321680A6958
:100EC00040F2FC739A43104340F001000861E6E7EA
:100ED000226A521E11430163E06D20F0020040F0CF
:100EE0000100E0654BE70000C0FFFF5FC0FFFF7F30
:100EF00020000020400D03000001005000040050BD
:100F0000000500500006005000030050000700508C
:100F10000000FEFF0740F0FF2DE9F0419CB00446C1
:100F2000142115A8FFF73FFA54216846FFF73BFA52
:100F30004FF40041206800268A03294D0327294CDD
:100F40004FF09048B0F1A04F10D0274B984244D1B9
:100F500068461192009101F0C9FA08B1FFF78AFBC7
:100F60002868401C286001281FD026E0684611929E
:100F7000009101F0BBFA08B1FFF77CFB2868401C28
:100F80002860012807D1E06C40F40050E064E06C78
:100F900000F400501A90E06C40F00100E064E06C56
:100FA00000F001001A90012010E0E06C40F40050C5
:100FB000E064E06C00F400501A90E06C40F0010036
:100FC000E064E06C00F001001A9080201796CDE9F3
:100FD000150715A9404600F071FC1CB0BDE8F08172
:100FE0001000002000100240000100502DE9F047E1
:100FF0000446884600684FF0A0454749474BDFF854
:101000002091A84201D0484501D10A4600E01A4685
:10101000926802F01F06A269082A14D0AEB1052E0C
:1010200013D0092E11D0A84202D0484500D019464D
:10103000886800F4604058B1E06D40F02000E06541
:101040000120BDE8F087082703E0C068C007F2E789
:10105000042700F057FD824619E000BFB8F1FF3FBA
:1010600015D000F04FFDA0EB0A01414502D8B8F1C0
:10107000000F0CD120680068384208D1E06D40F0C4
:101080000400E065002084F858000320D9E72068B8
:1010900000683842E2D0E06D40F40070E0652068FE
:1010A00002F063FF80B1607F70B9206800680007BC
:1010B0000AD5E06D20F48070E065E06DC00403D4D3
:1010C000E06D40F00100E0652068164A164B484587
:1010D00001D12C4604E0904201D11C4600E00446B8
:1010E00084420AD04EB1052E07D0092E05D04845BE
:1010F00006D0904203D11D4602E0C16801E00546DA
:10110000E968082F05D0490401D40C2101600020B2
:1011100097E70821FAE7000000030050000700509D
:101120000001005000050050000400502DE9F0417E
:10113000044600684FF0A045444FA84201D0B84291
:1011400001D1434900E04349896801F01F0602F0DC
:1011500004FF18B102210846BDE8F08194F8580058
:1011600001280CD0012084F858002046FFF78EF9A2
:1011700001004FF0000204D084F85820EBE7022071
:10118000EAE7E06D40F60163984340F48070E06563
:101190002068314BDFF8C4C0B84201D1AE4604E04C
:1011A000984201D1E64600E08646864500D02EB939
:1011B000D4F85CE02EF4801EC4F85CE0D4F85CE067
:1011C0005FEACE4E06D5D4F860E02EF0060EC4F8E5
:1011D00060E000E022664FF01C0EC0F800E084F8EA
:1011E00058202068B84201D12A4604E0984201D133
:1011F000624600E0024682420ED06EB1052E0BD050
:10120000092E09D0E26D42F48012E265B84213D093
:10121000984210D165460FE0C268920105D5E26D93
:1012200022F4005242F48052E26582680C4B1A406C
:10123000121D82608FE70546E86880018BD5E06D5E
:1012400020F4005040F48050E06584E70001005035
:10125000000300500007005000050050000400503B
:10126000C0FFFF7F70477047704700002DE9F047CF
:1012700090460D4604004FF0000A0FD075B160791A
:1012800001280ED04FF0010984F80590022020714A
:10129000A96808F01006042905D04AE00120BDE83D
:1012A000F0870220FBE700F02DFC07465FEA08000C
:1012B0004FF0030809D022E000F024FCC01B0128F5
:1012C00003D92068406B000411D42068406B0004EF
:1012D000F2D42168686A086418E000BF00F012FCCC
:1012E000C01B01280BD92068406B002807DA206951
:1012F00040F00800206184F804800320CFE72068D4
:10130000406B0028EADB2168686A48642068816CC9
:1013100040F2FF32B2409143AA6AB2401143816465
:101320002068C16CFF22B2409143EA6AB240114387
:10133000C164E869012808D12268916B1F20B04080
:101340008143286AB040084390632068C06B07213E
:10135000B1408843A969012903D0022957D069699E
:10136000F1B300216B69AA681A430A434FF48071F4
:1013700001FA06F398432B79012B00D00021114389
:101380004FF4007202FA06F398436B79012B00D0F8
:10139000002220F44047286842EA0108022838D099
:1013A00057EA0007216808FA06F03843C863206846
:1013B00001684FF48042B240914301602268116895
:1013C00040F6FE70B0408143E868B04008431060CA
:1013D00020680168C022B24091430160287B00E090
:1013E00015E0297CC0F3830001F03C0140EA811044
:1013F00021680A6E40F60F73B3409A43B04002432F
:101400000A6684F8049000206071504647E7012185
:10141000A8E701F0D9FA0649884202D947F4004703
:10142000C0E704498842BDD947F48047BAE70000C5
:101430000068890900B4C40470477047704770B5EC
:10144000040003D02079002510B105E0012070BD13
:101450006571204600F008F8022020712561012006
:101460002071002070BD0000F0B587B00546142142
:101470006846FEF798FF1D492868884233D11C4909
:10148000C86C40F48030C864C86C00F480300590AB
:10149000C86C40F00100C864C86C102700F001005F
:1014A0000097059003200026CDE9010669464FF01C
:1014B000904000F003FA104C0E4820600620C4E96A
:1014C00001078020C4E90360800060614000A061E2
:1014D0002020C4E90706204600F04AF908B1FFF7CA
:1014E000C9F8AC60A56207B0F0BD0000000800506C
:1014F000001002401C00024010050020F8B5040056
:10150000069817460D461BD0617901291AD001268D
:10151000667102212171BDB1E2682F49D162E26892
:101520002E491163E2682E49516321680A6842F02E
:1015300080520A6038B32268042827D01C3226E083
:101540000120F8BD0220F8BDA2682649D162A26838
:1015500025491163A2682549516321680A6842F44C
:1015600080520A6020B12268042804D0103203E0BF
:101570002268083200E00C322068016841F4005112
:101580000160A06809E02268143200E01832206887
:10159000016841F000510160E068394600F048F907
:1015A0000021617120B1216941F004012161F8BD80
:1015B00021680A6805F010039E4032430A600C4916
:1015C0000C4A0968B1FBF2F1491C00E0491E009188
:1015D0000029FBD1F8BD000063050008AD05000837
:1015E0008B05000853050008A305000873050008D3
:1015F00020000020400D030070B504001BD02068BF
:10160000036801F010024FF480559540AB4303602E
:1016100020680368012505FA02F29343036061B173
:10162000E06800F012F82068016821F000510160C4
:101630002571002070BD012070BDA06800F005F884
:101640002068016821F40051F1E710B590F82530C9
:1016500000210122022B03D00421C163012122E0D9
:1016600003681C6824F00E041C60836C1C6824F45E
:1016700080741C6003681C6824F001041C6090F8EE
:101680004430046C03F01F0302FA03F36360D0E9F3
:1016900013345C60436D33B11C6824F480741C60A7
:1016A000D0E916345C6080F82520002280F82420E0
:1016B000084610BDF0B4016C0C6801680D6890F824
:1016C000442002F01F06042202FA06F3234211D03E
:1016D0006B070FD50B689B0603D40B6823F004033C
:1016E0000B6090F8441001F01F018A40016C4A60C1
:1016F000016B1DE0022303FA06F727424FF0000CAE
:101700004FF0010218D0AF0716D50C68A40605D417
:101710000C6824F00A040C6080F8252090F844102E
:1017200001F01F018B40016C4B6080F824C0C16A3E
:1017300000291AD0F0BC08470823B340234214D034
:101740002B0712D50B6823F00E030B6090F84410A2
:10175000036C01F01F0102FA01F15960C26380F8C5
:10176000252080F824C0416BE2E7F0BC7047000000
:1017700070B504000CD02B4A21681420914209D284
:10178000294A0A44B2FBF0F08000606427480AE06E
:10179000012070BD234A52420A44B2FBF0F080009F
:1017A0006064204808382064022084F825000A6814
:1017B00047F6F0708243D4E902031843D4E90435B4
:1017C0002B431843A3691843E3691843236A18435A
:1017D000104308602046FEF7FBFEA0680025B0F528
:1017E000804F00D16560A16C20790860D4E91301B5
:1017F00041606068401E032808D82046FEF708FFB5
:10180000606D0560D4E91601416002E06565A5657B
:10181000E565E563012084F8250084F82450002064
:1018200070BD000008040240F8FFFDBF0000024048
:1018300070B5044690F82400002501280CD0012042
:1018400084F8240094F825600020012E06D084F846
:1018500024000225284670BD022070BD022684F8AF
:101860002560E0632068066826F0010606602046D1
:10187000FEF7E0FE206B00282068016802D041F0EE
:101880000E0106E021F0040101602068016841F0CA
:101890000A010160A06C0168C90303D5016841F425
:1018A00080710160606D18B1016841F48071016060
:1018B0002068016841F001010160CBE72DE9F04F9C
:1018C000DFF82092002301260324A9F1040B85B040
:1018D0000F2709F1040AABF1040EFAE006FA03F54A
:1018E0002A407CD091F804C00CF0030CBCF1010F2D
:1018F00002D0BCF1020F26D1D0F808C0CDF800C04C
:101900004FEA430C04FA0CF8CDF810C0DDF800C023
:101910002CEA080CCDF800C0D1F80C80DDF810C01E
:1019200008FA0CF8DDF800C048EA0C08C0F8088096
:10193000D0F804C02CEA050C0D79C5F300159D40C4
:1019400045EA0C0545600D79ED43AD070ED0C5683D
:101950004FEA430804FA08FC25EA0C05D1F808C050
:101960000CFA08FC4CEA050CC0F80CC00D7905F027
:101970000305022D16D1DD0800EB850CCDF808C05B
:10198000DCF820805D074FEAD56C07FA0CF528EAF1
:1019900005080D6905FA0CF5DDF808C045EA0805EB
:1019A000CCF8205005684FEA430CCDF808C004FA83
:1019B0000CFC25EA0C0591F804C00CF00308DDF8D6
:1019C00008C008FA0CF848EA0508C0F800804D681D
:1019D00015F4403F7CD0444DD5F860C000E077E07E
:1019E0004CF0010CC5F860C02D6E23F0030C05F01F
:1019F000010500953D4D65440295AD684FEA837C35
:101A00004FEA1C7807FA08FC25EA0C05B0F1904F64
:101A100006D0DFF8DCC0604505D14FF0010C20E0B6
:101A20004FF0000C1DE0DFF8CCC0604502D14FF054
:101A3000020C16E0DFF8C0C0604502D14FF0030C85
:101A40000FE0DFF8B8C0604502D14FF0040C08E0A9
:101A5000DFF8ACC0604502D14FF0050C01E04FF05B
:101A6000060C0CFA08FC4CEA050C029DC5F808C0EF
:101A7000D9F80050CC46D1F8048095435FEAC828D5
:101A800000D51543CCF80050DAF80050D446D1F810
:101A9000048095435FEA882800D51543CCF80050B0
:101AA000DBF80050DC46D1F8048095435FEA8838C3
:101AB00000D51543CCF80050DEF80050F446D1F8BC
:101AC000048095435FEAC83800D51543CCF8005030
:101AD0005B1C0A6832FA03F57FF400AF05B0BDE87D
:101AE000F08F000008040140001002400000014097
:101AF0000004004800080048000C0048001000489E
:101B0000001400480148806870470000140000205D
:101B100010B590F8DC20012A21D0012280F8DC20C9
:101B2000022380F8DD304B1C1BD00368D3F8CC4374
:101B300044F00204C3F8CC430368D3F8CC4324F048
:101B40000C040C43C3F8CC430168D1F8CC3343F008
:101B50000103C1F8CC3380F8DD20002010BD022045
:101B600010BD0168D1F8CC3323F00203C1F8CC33A7
:101B7000EAE7000070B590F8DD30022B3CD090F819
:101B8000DC30012B38D0012500F8DC5F02234370E4
:101B90001388948803F4E053C4F308041C431389A6
:101BA0006FF07E4603F400732343148A04F48044E8
:101BB0001C43938903F400432343948A06EA0444B4
:101BC0001C43936903F000732343146AD26904F041
:101BD00080441C4302F00042224350F8DC3CB8240D
:101BE00004EBC1141959054E314011431951457088
:101BF00000210170084670BD022070BD0020003C2D
:101C000038B5040056D0022084F8DD000025C4F861
:101C1000E050C4F8E450C4F8E850C4F8EC50C4F8FC
:101C2000F050C4F8F450C4F8F850207AC0071BD024
:101C300021492068884208D12048016E41F0806126
:101C40000166006E00F0806000902168086820F452
:101C50004042208A00F44040104320F44052A08AC1
:101C600000F4405010430860204600F029F8207A24
:101C7000800708D52168086820F44072A08900F424
:101C8000407010430860012084F8DD0084F8DC50C7
:101C90005FF00001C1EBC10004EB8000491C8561CD
:101CA000C561056245628562C9B205630629F1D93D
:101CB000002038BD012038BD0068014000100240FE
:101CC00008B500680649884208D10648016E41F00F
:101CD00080610166006E00F08060009008BD000029
:101CE0000068014000100240F0B587B0044614219E
:101CF0006846FEF758FB16492068884225D11548EA
:101D0000C16C41F00201C164C16C01F00201059196
:101D1000C16C41F00101C164C06C022400F00100FB
:101D200005904FF47040002503260D278DE8F10043
:101D300069460948FFF7C2FD4FF470608DE8F10075
:101D400069464FF09040FFF7B9FD07B0F0BD0000C5
:101D500000680140001002400004004870B50D46C4
:101D60000446FFF7CFFE064607E0681C05D0FFF7E4
:101D7000C9FE801BA8420DD865B12068D0F8880341
:101D8000C043C003F1D4012084F8DD00002084F8B2
:101D9000DC0070BD072084F8DD00032070BD70B545
:101DA00090F8DD30022B23D0022380F8DD300629A5
:101DB00020D08023046803EBC115635923F0070684
:101DC0009368334323F01806D36833436351942553
:101DD000046805EBC115136863519824036804EB8C
:101DE000C11152685A50012180F8DD10002070BDE9
:101DF000022070BD0368196821F00704916821432F
:101E000021F01804D16821431960036811685961F1
:101E1000516802689161E6E72DE9F04F90F8DD40E6
:101E2000022C25D090F8DC40012C21D04FF0010984
:101E300080F8DC90022480F8DD4000274FF0070C8A
:101E4000062918D09C2404EBC116012A39D080241D
:101E5000A8254FF4005A4FF4405B05EBC11504EB85
:101E6000C114022A2FD0042A45D0082A0BD144E0FD
:101E70000220BDE8F08F012A0AD0022A0CD0042AE1
:101E80000ED0082A10D080F8DDC080F8DC700EE09B
:101E900002681968D1610AE002681968516206E0B7
:101EA00002681968916202E002681968D16290F8CC
:101EB000DD10072948D080F8DD9080F8DC70002024
:101EC000D7E7196835E04FF0A408D0F800C008EB58
:101ED000C1111A684CF801205968002901680A5993
:101EE00022F440522ED00A5101680A59D3F804C096
:101EF00042EA0C0218E0196821E04FF0AC08D0F873
:101F000000C008EBC1111A684CF80120596800297B
:101F100001680A5922F4404214D00A5101680A5952
:101F2000D3F804C042EA8C020A515968514503D1E2
:101F3000996802689151BAE75945B8D19968026821
:101F40005151B4E70A51B2E7012092E710B590F879
:101F5000DC20012A0ED0012200F8DC2F022343707E
:101F600050F8DC3C1C680C431C604270002101707E
:101F7000084610BD022010BD70B5044690F8DD0083
:101F8000022811D094F8DC0001280ED0012584F835
:101F9000DC50022084F8DD00204601F096FE84F833
:101FA000DD50002084F8DC0070BD022070BD10B54B
:101FB00090F8DC20012A10D0012200F8DC2F022347
:101FC000437050F8DC3CD3F894430C43C3F894437B
:101FD000427000210170084610BD022010BD2DE99D
:101FE000F041044690F8DD0015460E46022826D042
:101FF00094F8DC00012821D0012784F8DC7002204D
:1020000084F8DD00062E1CD0204601F0CDFEC6EB84
:10201000C60004EB80002968016269684162A96812
:102020008162E968C162296901633146204601F095
:10203000CFFD062E15D0E86A40B112E00220BDE8BF
:10204000F0811146204601F0F7FDE0E7802120688D
:1020500001EBC6114258EB6D22F4007242EA4322B2
:10206000425084F8DD70002084F8DC00E7E72DE9B9
:10207000F041044690F8DD00022824D094F8DC00FA
:1020800001281FD0012584F8DC50022084F8DD00EF
:10209000EC20266800EBC113F058176820F0100000
:1020A00040EA071020F480175068384320F4803746
:1020B000D068384320F40037906838439769012F7F
:1020C00003D00CE00220BDE8F08120F00407106985
:1020D000384320F002075069384340F00100F050C7
:1020E000204601F075FD84F8DD50002084F8DC0006
:1020F000E9E790F84120202A24D190F84020012AD5
:1021000020D0012280F84020242280F8412002685B
:10211000136823F0010313600268136823F48053EB
:102120001360026813680B43136001680A6842F089
:1021300001020A60202180F84110002180F840103F
:10214000084670470220704790F84120202A22D18B
:1021500090F84020012A1ED0012280F8402024223D
:1021600080F841200268136823F0010313600268BD
:10217000136823F4706343EA0121116001680A685F
:1021800042F001020A60202180F84110002180F80D
:1021900040100846704702207047000070B50400E8
:1021A00004D094F84100002510B106E0012070BD74
:1021B00084F84050204600F04FF8242084F8410075
:1021C0002068016821F0010101606068216820F049
:1021D000706008612068816821F400418160E068D6
:1021E0000128A06830D040F4044021688860E0688D
:1021F0000228206841682AD021F4006141602068EB
:102200004168144A114341602068C16821F40041CB
:10221000C160D4E904010843A16940EA01202168B2
:10222000C860D4E907010843216808602068016894
:1022300041F0010101606564202084F841002563BC
:1022400084F84250002070BD40F40040CDE741F4D6
:102250000061D3E700800002F0B59BB00446142172
:1022600015A8FEF7A0F854216846FEF79CF820490F
:102270002068884239D140200025009007956846A3
:1022800000F034F908B1FEF7F5F91A4CE06C40F0B3
:102290000100E064E06C00F001001A90E06C40F096
:1022A0000200E064E06C122600F002001A9004279D
:1022B0004FF40040CDE91665CDE91857159015A9E2
:1022C000B006FFF7FBFA8020CDE91665CDE9185777
:1022D000159015A90848FFF7F1FAA06D40F4001019
:1022E000A065A06D00F400101A901BB0F0BD0000B6
:1022F0000054004000100240000400480248816879
:1023000042681144816070471400002010B5002419
:10231000032000F073F80F2000F008F808B1012442
:1023200001E000F025F8204610BD000070B50E4E0B
:1023300005460024706898B14FF47A71B1FBF0F053
:102340000A490968B1FBF0F000F0A0FD40B9102D7A
:1023500006D200222946501E00F030F8356000E019
:102360000124204670BD0000140000202000002041
:102370000A4882B0016E41F001010166016E01F070
:1023800001010091816D41F080518165806D00F007
:102390008050009002B000F0A1B800000010024090
:1023A000002809DB00F01F02012191404009800054
:1023B00000F1E020C0F8001170470000F0B40E4BAF
:1023C0001B680C46C3F30223C3F10705042D00D993
:1023D0000425191D072901D2002300E0DB1E012678
:1023E00006FA05F1491E214099409E40761E16408E
:1023F0003143F0BC02F0CBBF0CED00E0064900F029
:10240000070208684FF6FF03184040EA0220034A1B
:1024100010430860704700000CED00E00000FA0572
:102420002B492C4B0A6832214A432B4940B1B0F565
:10243000007F086829D020F4C06040F480602CE060
:102440000868C0F34120022804D051F8800F20F41E
:10245000807022E0D1F8800020F48070C1F8800004
:10246000086820F4C06040F400700860B2FBF3F02C
:10247000401C00E0401E4A69520501D50028F9D1F0
:10248000486940050AD503207047C0F3412002285F
:1024900006D051F8800F40F480700860002070472B
:1024A000D1F8800040F48070C1F88000086820F402
:1024B000C06040F400700860B2FBF3F0401C00E024
:1024C000401E4A695205DBD50028F9D1D8E7000043
:1024D0002000002040420F00007000400248816848
:1024E00041F4804181607047007000402DE9F8435D
:1024F000044600680026BB4D00035ED5A86D00278A
:10250000C00008D4A86D40F08050A865A86D0127D0
:1025100000F080500090DFF8D092D9F8001041F41C
:102520008071C9F80010FFF7EDFA804606E000BFA1
:10253000FFF7E8FAA0EB080002282BD8D9F8000032
:10254000C005F5D5D5F8900010F4407014D0216D79
:10255000814211D0D5F89000D5F8901020F4407049
:1025600041F48031C5F89010D5F8901021F48031F5
:10257000C5F89010C5F89000C00711D0FFF7C2FA57
:10258000804641F2883907E0FFF7BCFAA0EB08016A
:10259000494501D903260BE0D5F890008007F3D513
:1025A000D5F89000216D20F440700843C5F89000E4
:1025B0001FB1A86D20F08050A8652078C00707D013
:1025C000D5F88800616820F003000843C5F888004A
:1025D0002078800707D5D5F88800A16820F00C0086
:1025E0000843C5F888002078400707D5D5F888004B
:1025F000E16820F030000843C5F888002078000723
:1026000007D5D5F88800216920F0C0000843C5F837
:1026100088002078C00607D5D5F88800616920F4C5
:1026200040700843C5F888002078800607D5D5F8A3
:102630008800A16920F440600843C5F8880020782C
:10264000400607D5D5F88800E16920F440500843DA
:10265000C5F888002078000607D5D5F88800216ADB
:1026600020F440400843C5F888002088C00507D5FD
:10267000D5F88800616A20F440300843C5F8880026
:102680002068800307D5D5F89C00A16A20F00300DC
:102690000843C5F89C002088800507D5D5F8880038
:1026A000E16A20F440200843C5F8880020884005EE
:1026B0000FD5D5F88800216B20F440100843C5F8E9
:1026C0008800206BB0F5801F03D1E86840F48010CB
:1026D000E860208800050FD5D5F88800616B20F4EC
:1026E00040000843C5F88800606BB0F5800F03D147
:1026F000E86840F48010E8602088C0040FD5D5F861
:102700008800A16B20F040700843C5F88800A06BDA
:10271000B0F1807F03D1E86840F48010E860208841
:102720004FF0006180040ED5D5F88800E26B20F0F0
:1027300040601043C5F88800E06B884203D1E86828
:1027400040F48010E860208840040ED5D5F8880059
:10275000226C20F040601043C5F88800206C88424D
:1027600003D1E86840F48010E860208800040FD5A9
:10277000D5F88800616C20F040500843C5F8880007
:10278000606CB0F1805F03D1E86840F48030E860AD
:102790002068C0030FD5D5F88800A16C20F0404018
:1027A0000843C5F88800A06CB0F1804F03D1E868F9
:1027B00040F48030E860206840030FD5D5F89C00D5
:1027C000E16C20F440100843C5F89C00E06CB0F5C3
:1027D000001F03D1E86840F48010E8603046BDE88F
:1027E000F883000000100240007000402DE9F0471F
:1027F0000E4605004FF0000725D0DFF8AC81D8F871
:10280000000000F00F00B0420CD2D8F8001021F008
:102810000F013143C8F80010D8F8000000F00F0095
:10282000B04210D12968614CC80741F2883A5AD0A9
:102830006868DFF87C91032808D0022820682DD032
:10284000400500282CDB0120BDE8F08720688001CE
:10285000F9D5E06800F00302E068C0F30310401C03
:10286000032A19D0534A00BFB2FBF0F0E268C2F36A
:1028700006225043E268C2F34162521C5200B0FB90
:10288000F2F0484517D9A06810F0F00F0CD0880777
:1028900011D5A86840B10EE0474AE5E78003D0E7CC
:1028A00000F0BCF8484506D9A06820F0F00040F0E0
:1028B0008000A0608027A068696820F003000843BA
:1028C000A060FFF71FF9814606E000BFFFF71AF985
:1028D000A0EB090151453AD8A068696800F00C00E6
:1028E000B0EB810FF2D12868810714D5400703D5DA
:1028F000A06840F4E060A0602878000705D5A068D3
:1029000020F4605040F4E060A060A068A96820F066
:10291000F000084304E0802F03D1A06820F0F0000D
:10292000A060D8F80010404601F00F01B14216D95E
:10293000016821F00F0131430160FFF7E3F807461A
:1029400007E000BFFFF7DEF8C11B514501D90320A6
:102950007AE7D8F8000000F00F00B042F2D12878F2
:10296000400705D5A068E96820F4E0600843A0604E
:102970002878000706D5A068296920F4605040EA4D
:10298000C100A06000F04AF8A1680C4AC1F303112D
:10299000515C01F01F01C8400949086009480068FE
:1029A000BDE8F047FFF7C2BC002002400010024023
:1029B00000B4C4040024F40000127A00D6670008B2
:1029C000200000201400002001480068704700002B
:1029D000200000200548064900688968054AC1F3BF
:1029E0000221515C01F01F01C84070472000002007
:1029F00000100240E667000805480649006889683B
:102A0000054AC1F3C221515C01F01F01C840704763
:102A10002000002000100240E6670008184910B5A9
:102A20008868C0F381021748012A0BD08A684310D6
:102A3000C2F38102022A06D08A68C2F38102032A05
:102A400003D0002010BD184610BDCA6802F0030470
:102A5000CA68C2F30312521C032C02D0B0FBF2F07E
:102A600001E0B3FBF2F0CA68C968C2F30622504322
:102A7000C1F34161491C4900B0FBF1F010BD0000F9
:102A8000001002400024F4002DE9F84304007AD03D
:102A90002078F84DC00747D0A868E96800F00C001E
:102AA00001F003010C2802D0082817D001E0032907
:102AB00014D06068B0F5803F17D0B0F5A02F28681B
:102AC00017D020F480302860286820F48020286007
:102AD0006068E0B1FFF716F8064614E02868800346
:102AE00022D560680028D2D01EE0286840F48030EB
:102AF000EDE740F480202860F7E700BFFFF702F819
:102B0000801B642870D828688003F7D50CE0FEF796
:102B1000F9FF064605E000BFFEF7F4FF801B6428BE
:102B2000F0D828688003F7D4207880074CD5A868AF
:102B3000E96800F00C0001F003010C2802D0042821
:102B40000DD001E002290AD0E068002828682BD0C7
:102B500040F480702860FEF7D5FF064619E028682B
:102B6000400502D5E068002891D06868217C20F0FB
:102B7000FE4040EA01606860BF480068FFF7D6FB8E
:102B8000002800D120E072E1FEF7BCFF801B022884
:102B9000B8D828684005F7D56868217C20F0FE4049
:102BA00040EA016068600FE020F480702860FEF762
:102BB000A9FF064605E000BFFEF7A4FF801B022820
:102BC000A0D828684005F7D42078000729D5606987
:102BD0000028D5F8940013D040F00100C5F8940007
:102BE000FEF790FF064606E090E000BFFEF78AFF82
:102BF000801B022886D8D5F894008007F6D510E00F
:102C000020F00100C5F89400FEF77CFF064604E0C2
:102C1000FEF778FF801B022878D8D5F8940080074B
:102C2000F6D42078400761D5A86D0026C00008D4EE
:102C3000A86D40F08050A865A86D012600F0805076
:102C400000908E480168C90511D40168804641F49E
:102C500080710160FEF756FF074604E0FEF752FF61
:102C6000C01B022852D8D8F80000C005F6D5A068CD
:102C7000012815D00528D5F8900016D020F00100C5
:102C8000C5F89000D5F8900020F00400C5F8900039
:102C9000A06841F28838B8B1FEF734FF07460EE06D
:102CA000D5F8900040F00100F0E740F00400C5F8CE
:102CB0009000F5E7FEF726FFC11B414526D8D5F861
:102CC00090008007F6D50CE0FEF71CFF074604E0F5
:102CD000FEF718FFC11B414518D8D5F890008007B2
:102CE000F6D41EB1A86D20F08050A865207880062B
:102CF00029D5A0690028D5F8980013D040F001002C
:102D0000C5F89800FEF7FEFE064606E075E000BF37
:102D1000FEF7F8FE801B02286FD8D5F898008007D0
:102D2000F6D510E020F00100C5F89800FEF7EAFEA5
:102D3000064604E0FEF7E6FE801B02285DD8D5F8C3
:102D400098008007F6D4E069F0B3A968C1F3810167
:102D500003295DD00228286820F08070286003D005
:102D6000FEF7D0FE04464BE0FEF7CCFE064604E03C
:102D7000FEF7C8FE801B02283FD828688001F7D4E0
:102D8000F4E908016FF00F0202EB01110843218AF8
:102D90005204490802EB4151A26841EA022108436A
:102DA000217D4FF07E42490802EB41610843217BBF
:102DB00040EAC160E968324A11400843E860286887
:102DC00040F08070286000E05EE0E86840F08070CD
:102DD000E860FEF797FE044605E000BFFEF792FEAE
:102DE000001B022809D828688001F7D54CE000BFF5
:102DF000FEF788FE001B022802D90320BDE8F883F5
:102E000028688001F4D4E8681E490840E8603BE087
:102E10000128F3D0E868226A00F00301914226D12C
:102E2000616A00F0F0020901103991421FD1A26AD3
:102E300000F4FE41B1EB022F19D194F82C2000F0E0
:102E40007841B1EBC26F12D1218E00F4C002490863
:102E50004905A1F50011914209D194F8341000F010
:102E6000C06049084906A1F1007181420CD00120DF
:102E7000C4E7000000100240140000200070004071
:102E80000C809F01FCFFEEFE0020B7E710B5401E4E
:102E9000B0F1807F01D3012010BD4FF0E0246061CC
:102EA0000F21601702F073FA0020A0610720206153
:102EB000002010BD704770477047000030B590F893
:102EC0003C20012A45D0012280F83C20CA688B684A
:102ED00022F440721A434B6822F480621A430B6852
:102EE00022F400621A430B6922F480521A434B69A0
:102EF00022F400521A430B6B22F480421A430B8BCC
:102F000022F4702242EA0342CB6922F080521A4333
:102F1000114D03680024AB4205D0104DAB4202D0E6
:102F20000F4DAB4210D10D8D22F4700242EA0552D2
:102F30000D6A22F080722A434D6A22F000722A4301
:102F4000C96A22F000520A435A6480F83C400020CB
:102F500030BD022030BD0000002C01400034014093
:102F6000005001407047704770470000F0B590F87E
:102F70003C20012A43D0012580F83C50022280F8F1
:102F80003D2003685A689C681E4E1F4FDFF87CC0C6
:102F9000B34203D0BB4201D0634504D122F4700E8A
:102FA0004A6842EA0E02DFF868E002EA0E02D1F84F
:102FB00000E04EEA020EC3F804E00268B24212D00A
:102FC000B2F1804F0FD0134B9A420CD0124B9A4261
:102FD00009D0124B9A4206D0BA4204D0104B9A4202
:102FE00001D0624504D1896824F0800319439160BF
:102FF00080F83D50002180F83C100846F0BD0220CA
:10300000F0BD0000002C01400034014000500140A0
:103010008FFFFFFD0004004000080040000C00404E
:1030200000400140704710B5040003D094F83D0003
:1030300010B107E0012010BD002084F83C002046BC
:1030400000F022F8022084F83D00211D206801F0E4
:1030500015FC012084F8480084F83E0084F83F0005
:1030600084F8400084F8410084F8420084F843006A
:1030700084F8440084F8450084F8460084F847004A
:1030800084F83D00002010BD10B586B00446142120
:103090006846FDF788F9224A21682248914207D103
:1030A000016E41F400610166006E00F400600CE006
:1030B000B1F1804F0CD01C4A914207D1816D41F093
:1030C00002018165806D00F00200059006B010BD20
:1030D000816D41F001018165816D01F00101059172
:1030E000C16C41F00101C164C06C694600F001008F
:1030F0000590202000900220019000200290039073
:10310000012004904FF09040FEF7D8FB00221146BA
:103110001C20FFF753F91C20FFF742F9D6E7000007
:10312000002C0140001002400004004090F83D10C7
:10313000012901D001207047022180F83D1000686C
:103140001249884214D0B0F1804F11D01049884202
:103150000ED0104988420BD00F49884208D00F4941
:10316000884205D00E49884202D00E49884207D1D4
:1031700081680D4A1140062906D0B1F5803F03D081
:10318000016841F00101016000207047002C0140FE
:103190000004004000080040000C004000340140E2
:1031A00000400140005001400700010001680A6A28
:1031B00041F211131A4207D10A6A9B001A4203D145
:1031C0000A6822F001020A60012180F83D10002007
:1031D0007047000070B5044690F83C0000250128B7
:1031E0001CD0012684F83C60022084F83D0022684F
:1031F0009068334B184020F47F4090600868B0F529
:10320000005F2ED016DC402849D009DCD0B1102850
:1032100018D0202816D0302849D113E0022070BDE4
:1032200050282AD0602830D070280FD0B0F5805FA9
:103230003DD13DE010F00F0F39D10111A1F58031E2
:10324000072934D822680146104625E0CB68D1E929
:103250000121206801F091FB2068816841F077012D
:1032600009E0CB68D1E90121206801F086FB2068E4
:10327000816841F4804181601AE0CA684968206829
:1032800001F050FD5021206806E0CA6849682068B6
:1032900001F09AFD6021206801F07AFB08E0CA681D
:1032A0004968206801F03EFD40212068F4E70125CF
:1032B00084F83D60002084F83C00284670BD000082
:1032C00088FFCEFF38B50168B1F1804F18D1007F7B
:1032D000012815D10B48FFF769FF0A480024006850
:1032E000446221460848FEF787F90648FFF71EFFAB
:1032F0004FF40073054A002103480094FEF7FEF8DE
:1033000038BD000058070020FC04002024000020E5
:103310002DE9F041054690F83C0000260C460128B6
:1033200010D0012085F83C0072B1042A1CD0082A74
:103330002CD00C2A50D00126002085F83C003046C5
:10334000BDE8F0810220FBE7D4E90012E3682868B9
:1033500001F0FAFC2868816921F00C01816128687C
:103360008169A26811430FE0D4E90012E36828687C
:1033700001F03CFD2868816921F440618161286881
:103380008169A26841EA02218161D5E72868D4E910
:10339000002C277B036A016A21F480710162C169F4
:1033A00023F4206321F0030141EA0C0121F0F00C29
:1033B00039074FF420674CEA116107EA02221A43E9
:1033C000C16102622868C16921F00C01C1612868ED
:1033D000C169A26811432BE02868D4E90021E7689D
:1033E000036AD0F820C02CF4805CC0F820C0D0F86C
:1033F0001CC023F420432CF4407C4CEA012121F42E
:10340000704C4FF6FF7101EA07314FF4204741EA53
:103410000C0107EA02321A43C16102622868C169DD
:1034200021F44061C1612868C169A26841EA0221B2
:10343000C16181E710B5040003D094F83D0010B1DC
:1034400007E0012010BD002084F83C00204600F079
:1034500022F8022084F83D00211D206801F00EFAB8
:10346000012084F8480084F83E0084F83F0084F886
:10347000400084F8410084F8420084F8430084F856
:10348000440084F8450084F8460084F8470084F836
:103490003D00002010BD704730B50446002571B1D5
:1034A000042911D0082914D00C2917D0102918D0BC
:1034B00094F8430094F84720012817D114E094F8B9
:1034C0003E0094F84420F7E794F83F0094F8452034
:1034D000F2E794F8400094F84620EDE794F84100B4
:1034E000E8E794F84200E5E7012A01D0012030BD69
:1034F000022079B1042916D008291DD00C294FD0FB
:10350000102950D084F8430084F847000C294DD08E
:10351000012543E084F83E0084F844002068C26836
:1035200042F0020210E084F83F0084F84500206871
:10353000C26842F0040207E084F8400084F84600C4
:103540002068C26842F00802C2600122206801F0CF
:1035500007FA19492068884214D0B0F1804F11D081
:10356000164988420ED0164988420BD01549884228
:1035700008D01549884205D01449884202D0144920
:10358000884207D18168134A1140062906D0B1F557
:10359000803F03D0016841F001010160284630BD41
:1035A00084F84100B0E784F84200ADE72068C268C3
:1035B00042F01002C8E70000002C01400004004067
:1035C00000080040000C0040003401400040014071
:1035D00000500140070001002DE9F0410446006859
:1035E000C66805694FF00007A90713D5B10711D5C3
:1035F000F91E01610120207720688069800720463C
:1036000002D0FFF75FFE04E000F00AF9204600F068
:10361000CCF92777680716D5700714D521686FF0A5
:1036200004000861022020772068806910F4407F40
:10363000204602D0FFF746FE04E000F0F1F82046F5
:1036400000F0B3F92777280715D5300713D521687F
:103650006FF008000861042020772068C0698007A7
:10366000204602D0FFF72EFE04E000F0D9F82046F5
:1036700000F09BF92777E80616D5F00614D52168E7
:103680006FF010000861082020772068C06910F4EE
:10369000407F204602D0FFF715FE04E000F0C0F89E
:1036A000204600F082F92777E80708D0F00706D017
:1036B00021686FF001000861204600F077F92806C4
:1036C00001D4A80408D5300606D521686FF402504D
:1036D00008612046FFF7EFFBE80508D5300606D560
:1036E00021686FF4807008612046FFF7E3FB6806ED
:1036F00008D5700606D521686FF0400008612046A5
:1037000000F055F9A80608D5B00606D521686FF077
:10371000200008612046FFF7CFFBE80208D5F00241
:1037200006D521686FF4801008612046FFF71BFC66
:10373000A80208D5B00206D521686FF40010086110
:103740002046FFF70FFC680208D5700206D52168F5
:103750006FF4800008612046FFF706FC28020AD5B6
:10376000300208D521686FF4000008612046BDE8EA
:10377000F041FFF757BCBDE8F0810000F0B587B01D
:10378000044614216846FCF70EFE21492068884251
:103790003CD12048C16C41F00401C164C16C01F00E
:1037A00004010591C16C41F00201C164C06C0224A6
:1037B00000F0020005904FF4005000258DE8310024
:1037C0000420CDE90350144F69463846FEF776F8D9
:1037D000012600960320CDE90145CDE903046946A1
:1037E0003846FEF76BF80094CDE90145CDE9035466
:1037F00069463846FEF762F80096CDE90145062095
:10380000CDE9035069460548FEF758F807B0F0BD0A
:10381000002C01400010024000080048000400484D
:10382000704770B5044690F83C0000260D4601280C
:103830000BD0012084F83C000C2A4AD007DC82B16E
:10384000042A20D0082A06D131E0022070BD102AB7
:1038500053D0142A63D00126002084F83C0030465F
:1038600070BD206801F09EF82068816941F0080170
:1038700081612068816921F004018161206881698A
:103880002A69114311E0206801F0E2F8206881699B
:1038900041F4006181612068816921F48061816166
:1038A000206881692A6941EA02218161D4E72068A0
:1038B00001F01EF92068C16941F00801C16120686A
:1038C000C16921F00401C1612068C1692A691143FD
:1038D00011E0206801F05CF92068C16941F40061E1
:1038E000C1612068C16921F48061C1612068C1693A
:1038F0002A6941EA0221C161AEE7206801F098F926
:103900002068016D41F0080101652068016D21F01A
:10391000040101652068016D2A69114311E02068E6
:1039200001F0C2F92068016D41F400610165206871
:10393000016D21F4806101652068016D2A6941EA09
:103940000221016588E710B5040003D094F83D001A
:1039500010B107E0012010BD002084F83C00204693
:1039600000F022F8022084F83D00211D206800F0BC
:1039700085FF012084F8480084F83E0084F83F0069
:1039800084F8400084F8410084F8420084F8430041
:1039900084F8440084F8450084F8460084F8470021
:1039A00084F83D00002010BD704770477047704795
:1039B00090F88410012918D0012180F88410242166
:1039C000C0F8881001680A680B6823F001030B60D7
:1039D00022F0005100224266036819602021C0F8DD
:1039E000881080F88420104670470220704770B518
:1039F000044690F8840001281DD0012084F884003A
:103A00002420C4F8880020680568026822F00102BA
:103A100002602068826822F060620A438260204669
:103A200001F000FA206805602020C4F8880000201A
:103A300084F8840070BD022070BD70B5044690F813
:103A4000840001281DD0012084F884002420C4F8BB
:103A5000880020680568026822F001020260206880
:103A6000826822F060420A438260204601F0DAF95F
:103A7000206805602020C4F88800002084F88400B5
:103A800070BD022070BD10B5040003D0D4F88800CA
:103A900010B107E0012010BD002084F8840020460A
:103AA00000F026F82420C4F888002068016821F07E
:103AB00001010160A06A10B1204601F0D5F920464D
:103AC00001F0B6FA0128E6D02068416821F490415F
:103AD00041602068816821F02A01816020680168C6
:103AE00041F0010101602046BDE8104001F020BA1C
:103AF0002DE9F0419CB00646142115A8FCF753FCB3
:103B000054216846FCF74FFC2B49306888424FD15E
:103B10000120009001906846FEF7E8FC08B1FCF730
:103B2000A9FD2649086E40F480400866086E00F43E
:103B300080401A90C86C40F00400C864C86C00F063
:103B400004001A90C86C40F00200C864C86C0025DC
:103B50004FF02008022400F00200CDF85480CDE997
:103B6000164507271895CDE9197015A91448FDF7D2
:103B7000A5FE15A9402081E83100CDE9185711486C
:103B8000FDF79CFE114C1048206019206060102049
:103B9000C4E902058020C4E90405C4E906582046AA
:103BA0002562FDF7E5FD08B1FCF764FDF467A66248
:103BB0001CB0BDE8F0810000003801400010024058
:103BC00000080048000400480800024038080020AF
:103BD000072930D2DFE801F00A10161C2228040061
:103BE0000068D0F8841341F0010122E00068D0F8A9
:103BF000841341F002011CE00068D0F8841341F006
:103C0000040116E00068D0F8841341F0080110E0C8
:103C10000068D0F8841341F010010AE00068D0F881
:103C2000841341F0200104E00068D0F8841341F0CF
:103C30004001C0F88413704770B503681A68D3F860
:103C4000A0534C6922F020022646144324F0C002FF
:103C5000202E2BD08C69022C28D0032C2BD0042CA6
:103C60002ED022F0E00200BF22F40064CA69224391
:103C700022F480640A6A224322F0C0644A6A224322
:103C800022F000648A6A2243CC6A22F0404242EA6F
:103C9000840222F000544A6B096B224325F48034DD
:103CA00021431A600068C0F8A01370BD22F0C00262
:103CB00042F02002D8E722F0800242F04002D3E72F
:103CC00022F0400242F08002CEE7F0B50024E42664
:103CD000056806EBC11755F807C0B82606EBC116F4
:103CE000AE59402A20D00EDC082A2CD006DC012A4E
:103CF0001AD0022A27D0042A31D115E0102A13D075
:103D0000202A2CD11FE0B2F5007F1CD005DC802AD0
:103D100019D0B2F5807F22D106E0B2F5806F03D0D2
:103D2000B2F5006F1BD10EE04FF0BC0E0EEBC11EC2
:103D30005A6845F80E204FF0C00E05680EEBC11111
:103D40009A686A500BE0C42404EBC1145A682A51E3
:103D5000C825046805EBC1119A6862501024FE2141
:103D6000A1401A682CEA010CA240D96842EA0C0270
:103D7000A14011431A69D3F814C01546A2400A4362
:103D80000CFA04FC99694CEA020CA14041EA0C01CE
:103D9000082D06D1B20504D4B20102D4DA69A240DA
:103DA00011430068C151F0BD2DE9F04F8024036834
:103DB00004EBC117DC5924F07044DC510568EC5960
:103DC000E82303EBC1139E4655F803C0E42303EB3D
:103DD000C1139B4655F803A0D5F8A033566924F0CB
:103DE00020043443202E24D09669022E21D0032EA5
:103DF00024D0042E27D024F4D07400BF24F400660D
:103E0000D469344324F48066146A344324F0C066D1
:103E1000546A344324F00066946A344324F07046B4
:103E2000D46A3443566B24F40034B6F1005F0FD0EB
:103E300010E024F4C07444F02004DFE724F480741C
:103E400044F08004DAE724F0800444F48074D5E779
:103E500044F4003424F04008946B2CF03F0C2646C8
:103E600044EA080424F48028946D44EA0804DFF846
:103E7000D08004EA0804D2F8508048EA040992F895
:103E80003C40D2F8408004F03F0444EA0C0424F0A3
:103E9000004448EA0408546C2AF4807C44EA0C0488
:103EA000D2F848C0BCF5606F02D0BCF5F05F01D11C
:103EB000402E03D124F4F0544CEA040424F4804648
:103EC000D46C3443566D062927D2DFE801F003098C
:103ED0000F151B21126B23F4003343EA42031CE04D
:103EE000126B23F4802343EA820316E0126B23F45F
:103EF000002343EAC20310E0126B23F4801343EA69
:103F000002130AE0126B23F4001343EA421304E0A5
:103F1000126B23F4800343EA821345F80790056887
:103F200045F80E80056845F80B40D424026804EB80
:103F3000C11156500068C0F8A033BDE8F08F0000F2
:103F4000FFFF06FEFEE700EB8100006E00F0F84088
:103F500070478068C0F3C00070478068C0F380007D
:103F600070478068C0F380007047C06810F4406FED
:103F700001D00020704701207047042303EAD15389
:103F800010B518444369C1F3045107248C40A3437E
:103F90008A401343436110BD00EB8100016E21F0A4
:103FA000004111430166704730B58BB0002408947E
:103FB0000994202168460A94FCF7F5F91E484FF051
:103FC000A041042501604FF44031C0E90114C460F0
:103FD0000461C0E90545047744770121016280F856
:103FE00024404FF4A461C1622902016380F8384083
:103FF000C46380F84040FCF777FE08B1FCF73AFB59
:1040000008A90D480894FCF785FB08B1FCF732FBC2
:104010000A4800900620CDE901047F200594CDE9EF
:10402000030569460448FCF725FC002801D0FCF78D
:1040300021FB0BB030BD000024040020020030043E
:1040400030B589B020216846FCF7ADF91948184908
:10405000002401604FF44031C0E90114C46004251C
:104060000461C0E90545047744770121016280F8C5
:104070002440C462046380F83840C46380F8404040
:10408000FCF732FE08B1FCF7F5FA0B480090062069
:10409000CDE901047F200594CDE903056946054873
:1040A000FCF7E8FB002801D0FCF7E4FA09B030BDCA
:1040B00000010050900400201000C01000B58DB029
:1040C00030216846FCF76FF912491148086008462C
:1040D000FDF7B5F908B1FCF7CDFA022000900020F9
:1040E00022218DF80400CDE902018DF8050001219F
:1040F0000490CDE905010246079069460548FDF7A1
:10410000B5F8002801D0FCF7B5FA0DB000BD0000ED
:1041100000080050FC040020114808B5816C41F0F3
:1041200004018164816C01F004010091816C41F013
:1041300001018164806C002200F0010000901146B2
:104140000B20FEF73BF90B20FEF72AF9002211465F
:104150000C20FEF733F9BDE808400C20FEF720B92B
:1041600000100240114808B5C16C41F00401C1645F
:10417000C16C01F004010091C16C41F02001C164E7
:10418000C16C01F020010091C16C41F00101C164DA
:10419000C16C01F001010091C16C41F00201C164E8
:1041A000C06C00F00200009008BD0000001002404A
:1041B00070B5B8B0002433943494359460216846C7
:1041C0003694FCF7F0F829942A941C212CA82B94FF
:1041D000FCF7E9F8242120A8FCF7E5F8202118A82D
:1041E000FCF7E1F8CA48C949C0E900148460FDF74A
:1041F00007FD08B1FCF73EFA0C21C548FDF788FC25
:1042000008B1FCF737FA0A21C148FDF7A7FD08B14C
:10421000FCF730FA40F2A460CDE93304052008250C
:10422000CDE9350533AA0621B948FDF7B8FD08B137
:10423000FCF720FA0094019401200294CDE9034098
:10424000059406940794C0060894CDE909408000BF
:10425000CDE90C400B946A460621AD481794FDF752
:10426000BEFE08B1FCF706FAC820299029AB01224E
:104270000621A748FDF7D0FD08B1FCF7FBF94FF484
:10428000C870299029AB02220621A148FDF7C4FD80
:1042900008B1FCF7EFF94FF41670299029AB04220E
:1042A00006219B48FDF7B8FD08B1FCF7E3F94FF490
:1042B0004870299029AB082206219548FDF7ACFDEE
:1042C00008B1FCF7D7F933AA00219148FDF767FD43
:1042D00008B1FCF7CFF92C942F942CAA00218C481C
:1042E0003294FDF7C4FE08B1FCF7C4F901944FF411
:1042F0008076CDE9104600940F940E941294149495
:1043000015946A46002182481694FDF768FE08B1AC
:10431000FCF7B0F96A4601217D48FDF760FE08B15F
:10432000FCF7A8F96A4602217948FDF758FE08B162
:10433000FCF7A0F96A46032175481294FDF74FFE79
:1043400008B1FCF797F940F25230299029AB0122CD
:1043500000216F48FDF760FD08B1FCF78BF94FF4C1
:1043600040602090CDE921542394CDE92445269442
:10437000279420AA002166482894FDF7FBFB08B18A
:10438000FCF778F920AA01216148FDF7F3FB08B199
:10439000FCF770F920AA02215D48FDF7EBFB08B19C
:1043A000FCF768F920AA03215948FDF7E3FB08B19F
:1043B000FCF760F9CDE91846CDE91A541C941D9418
:1043C0001E9418AB0122002151481F94FDF7D4FD23
:1043D00008B1FCF74FF94FF40070199018AB0422A4
:1043E00001214B48FDF7C8FD08B1FCF743F94FF434
:1043F0008060199018AB102202214548FDF7BCFDE2
:1044000008B1FCF737F94FF40060199018AB40225F
:1044100003213F48FDF7B0FD08B1FCF72BF91994D3
:1044200018AB022200213A481A94FDF7A5FD08B105
:10443000FCF720F918AB082201213548FDF79CFD57
:1044400008B1FCF717F918AB202202213048FDF71C
:1044500093FD08B1FCF70EF918AB802203212C481C
:10446000FDF78AFD08B1FCF705F933AA01212848B8
:10447000FDF795FC08B1FCF7FDF82CAA01212448B2
:10448000FDF7F5FD08B1FCF7F5F8012229AB11465F
:104490001F48FDF7C1FC08B1FCF7ECF833AA022174
:1044A0001B48FDF77CFC08B1FCF7E4F82CAA0221BC
:1044B0001748FDF7DCFD08B1FCF7DCF829AB012259
:1044C00002211348FDF7A8FC08B1FCF7D3F833AA82
:1044D00003210F48FDF763FC08B1FCF7CBF82CAAC9
:1044E00003210B48FDF7C3FD08B1FCF7C3F829AB66
:1044F000012203210648FDF78FFC08B1FCF7BAF84A
:104500000348FDF7F1FB38B070BD000000680140C2
:1045100070050020134810B511490160124941602F
:1045200000210122C0E90212016141618161C16182
:104530000162FDF733FE08B1FCF79CF80021094841
:10454000FDF7D7FD08B1FCF795F800210548FDF708
:10455000FBFD002803D0BDE81040FCF78BB810BD70
:10456000005400406C060020C285B24010B59CB0DB
:10457000002419941A9417941894149415941C21D7
:104580000DA81694FBF70FFF34216846FBF70BFFCD
:1045900031483049C0E9001440F2A361C0E902414A
:1045A000046144618461FEF73EFD08B1FCF762F8E6
:1045B0004FF48050179017A92748FEF70BFE08B15B
:1045C000FCF758F82448FFF7BEF908B1FCF752F899
:1045D0002020CDE9140414A91F481694FEF7C6FC48
:1045E00008B1FCF747F860200D9040F25230CDE959
:1045F0000E0410941194129400220DA916481394DD
:10460000FFF70FF908B1FCF735F804220DA912489D
:10461000FFF707F908B1FCF72DF800944FF40050AC
:10462000CDE90440019402940394C0020694CDE9BC
:1046300007404000CDE909040B94694606480C94F4
:10464000FEF73CFC08B1FCF715F80348FFF796F8B5
:104650001CB010BD002C0140C006002010B58CB06D
:1046600000240594214804940694079408940A941D
:1046700009940094019402944FF080410394C0E99E
:10468000001444F26821C0E9024104618461FEF72C
:10469000CAFC08B1FBF7EEFF4FF48050049004A968
:1046A0001248FEF797FD08B1FBF7E4FF0F48FEF74D
:1046B000C1FE08B1FBF7DEFF089408A90B480A9475
:1046C000FEF754FC08B1FBF7D5FF0120CDE900400F
:1046D00002940022694605480394FEF719FE00285B
:1046E00001D0FBF7C7FF0CB010BD00000C07002085
:1046F00010B58EB000240794089409940A940B9482
:104700000C941C2168460D94FBF74DFE1D481C4976
:1047100001604121C0E901146321C0E903148461EF
:10472000FEF781FC08B1FBF7A5FF4FF4805007901E
:1047300007A91448FEF74EFD08B1FBF79BFF11488F
:10474000FFF701F908B1FBF795FF20200B908020BF
:104750000D900BA90B48FEF709FC08B1FBF78AFF87
:104760006020CDE9000402940022694605480494C3
:10477000FFF757F8002801D0FBF77CFF0EB010BD03
:104780000004004058070020184810B51649016081
:104790004FF4E1314160002181600C22C160C0E929
:1047A00004128161C161016241628162FFF76BF9AC
:1047B00008B1FBF75FFF00210C48FFF73EF908B195
:1047C000FBF758FF00210948FFF711F908B1FBF783
:1047D00051FF0648FFF7ECF8002803D0BDE8104071
:1047E000FBF748BF10BD000000380140A4070020BF
:1047F000FEE7FEE770477047FDF780BD10B594B047
:1048000038216846FBF7CFFD14210EA8FBF7CBFD3E
:104810000020FDF705FE0120009000040190022019
:104820000324CDE907045521CDE909010B900C9033
:104830000D906846FEF728F908B172B6FEE70F2022
:10484000CDE90E04002010901190129004210EA8C2
:10485000FDF7CCFF002801D072B6FEE714B010BD02
:104860000248016841F470010160704788ED00E082
:104870000148FEF7B1BE00000C0700202DE9F04F03
:1048800002682E4B2E4E2F4FDFF8BCC02F4C304D00
:104890004FF0804B98420BD0584509D0B04207D01A
:1048A000B84205D0604503D0A04201D0A84204D14F
:1048B00022F070084A6842EA0802DFF89880DFF8C0
:1048C0009890DFF898A0984211D058450FD0B04288
:1048D0000DD0B8420BD0604509D0A04207D040456A
:1048E00005D0484503D0504501D0A84203D122F459
:1048F0004076CA6832434E6922F080023243026039
:104900008A68C2620A688262984209D0A04207D0CF
:10491000404505D0484503D0504501D0A84201D1BB
:1049200009690163012141610169C90703D0016976
:1049300021F001010161BDE8F08F0000002C014071
:104940000004004000080040000C0040003401401A
:104950000050014000400140004401400048014037
:1049600010B501F01F030121046A99408C430462D1
:10497000016A9A401143016210BD10B5846842EA91
:10498000032224F47F440A432243826010BD0000C6
:104990008268034B1A400A4342F007018160704766
:1049A0008FFFCFFF2DE9F047056A026A22F001026E
:1049B0000262436882691F4C25F0020522400C68A0
:1049C00022F0030214438A681C4E2A431A4D1C4FDE
:1049D000DFF870C0DFF87090DFF870A0A84209D04F
:1049E000B04207D0B84205D0604503D0484501D059
:1049F000504506D122F00808CA6842EA080222F0AF
:104A00000402A84209D0B04207D0B84205D06045A0
:104A100003D0484501D0504505D14D6923F440737A
:104A20001D438B692B434360846149684163026283
:104A3000BDE8F0878FFFFEFF002C014000340140ED
:104A40000040014000440140004801400050014046
:104A5000F0B5056A026A22F01002026242688369B8
:104A60001C4C1E4E23400C6823F4407343EA04247C
:104A700025F020038D681A4F43EA0513164DA8420E
:104A800003D0B04201D0B84207D1D1F80CC023F016
:104A9000800343EA0C1323F04003A8420CD0B04239
:104AA0000AD0104DA84207D00F4DA84204D00F4D98
:104AB000A84201D0B84207D14D6922F4406242EACF
:104AC00085028D6942EA850242608461496881639A
:104AD0000362F0BDFF8FFFFE002C01400034014057
:104AE00000500140004001400044014000480140A6
:104AF000F0B5056A026A22F4807202624368C269F4
:104B00001C4C1E4E22400C6822F00302144325F474
:104B100000728D681A4F42EA0522174DA84203D051
:104B2000B04201D0B84207D1D1F80CC022F40062E3
:104B300042EA0C2222F48062A8420CD0B0420AD091
:104B4000104DA84207D0104DA84204D00F4DA842E6
:104B500001D0B84207D14D6923F4405343EA05130D
:104B60008D6943EA05134360C4614968C163026209
:104B7000F0BD00008FFFFEFF002C0140003401401B
:104B80000050014000400140004401400048014005
:104B9000F0B5056A026A22F4805202624268C36973
:104BA0001C4C1E4E23400C6823F4407343EA04243B
:104BB00025F400538D681A4F43EA0533164DA84279
:104BC00003D0B04201D0B84207D1D1F80CC023F4D1
:104BD000004343EA0C3323F48043A8420CD0B04294
:104BE0000AD0104DA84207D00F4DA84204D00F4D57
:104BF000A84201D0B84207D14D6922F4404242EAAE
:104C000085128D6942EA85124260C4614968016477
:104C10000362F0BDFF8FFFFE002C01400034014015
:104C20000050014000400140004401400048014064
:104C300030B5056A026A22F4803202624268036D6E
:104C4000124C23400C681C4325F400330D8943EAC1
:104C500005430F4DA8420ED00E4DA8420BD00E4D6D
:104C6000A84208D00D4DA84205D00D4DA84202D053
:104C70000C4DA84204D14D6922F4803242EA05224B
:104C80004260046549688164036230BD8FFFFEFFA6
:104C9000002C01400034014000400140004401402C
:104CA000004801400050014030B5046A026A22F415
:104CB000801202624268036D134D24F400142B40ED
:104CC0000D6843EA05230D8944EA05540F4DA842B7
:104CD0000ED00F4DA8420BD00E4DA84208D00E4D5D
:104CE000A84205D00D4DA84202D00D4DA84204D1D6
:104CF0004D6922F4802242EA8522426003654968B8
:104D0000C164046230BD0000FF8FFFFE002C014033
:104D1000003401400040014000440140004801408F
:104D20000050014010B5036A046A24F001040462D3
:104D3000846924F0F00444EA021423F00A020A43CE
:104D40008461026210BD000070B5056A046A24F037
:104D5000010404628469154EB04214D0B0F1804F52
:104D600011D0134EB0420ED0124EB0420BD0124EA4
:104D7000B04208D0114EB04205D0114EB04202D020
:104D8000104EB04203D124F00304144301E044F078
:104D900001041A0724F0F00444EA126225F00A0321
:104DA00001F00A0119438261016270BD002C0140CB
:104DB0000004004000080040000C004000340140A6
:104DC000004001400050014010B5036A046A24F01D
:104DD00010040462846923F0A00324F4704444EABC
:104DE000023243EA01118261016210BD30B5046AEA
:104DF000056A25F010050562856925F4407545EAC8
:104E0000022222F470454FF6FF7202EA033224F0C8
:104E1000A0032A43A02404EA01111943826101621C
:104E200030BD000030B5416EB9B10268916892683A
:104E3000C1F342610B4B520F9C5CE50003F1080487
:104E4000A25CB5FBF2F2A0F86A205A5C615CD20069
:104E5000B2FBF1F1A0F8681030BD0121A0F86A1092
:104E6000F8E70000C667000890F82810090706D583
:104E700001684A68836B22F400421A434A6090F842
:104E80002810C90706D001684A68C36A22F40032B4
:104E90001A434A6090F82810890706D501684A68C5
:104EA000036B22F480321A434A6090F828104907B5
:104EB00006D501684A68436B22F480221A434A608F
:104EC00090F82810C90606D501688A68C36B22F4D9
:104ED00080521A438A6090F82810890606D5016826
:104EE0008A68036C22F400521A438A6090F82810F2
:104EF000490611D501684A68436C22F480121A43AE
:104F00004A60416CB1F5801F06D101684A68836C24
:104F100022F4C0021A434A6090F82810090606D508
:104F200001684A68C06C22F4002202434A6070475C
:104F30002DE9F84300260446C0F89060FCF7E2FD36
:104F40008046206800684FF0200500076FF07E471C
:104F500013D54346002229042046009700F0B4F9F7
:104F600058B1216851E8000F20F0800041E80002AC
:104F7000002AF6D1C4F8885021E020680068400774
:104F800022D5434600224FF480012046009700F0CE
:104F90009BF9C8B1216851E8000F20F4907041E8F6
:104FA0000002002AF6D12068083050E8001F21F0E6
:104FB000010140E80012002AF5D1C4F88C5084F8B1
:104FC00084600320BDE8F883C4F88850C4F88C508E
:104FD00044F86C6F666026760020F3E710B502682F
:104FE00052E8001F21F4907142E80013002BF6D123
:104FF0000E4B0268083252E8001F194042E80014C4
:10500000002CF6D1C16E012908D1016851E8002FAA
:1050100022F0100241E80023002BF6D12021C0F835
:105020008C100021C166416710BD0000FEFFFFEF3C
:105030002DE9F0410446016880682269E369104364
:10504000626900251A431043DFF84CC20A68934B8B
:105050001A4002430A6020684168E26821F4405126
:10506000114341602168A069614501D0226A104363
:105070008A688B4B1A4002438A602068C16A626A60
:1050800021F00F011143C1628649236886488B4293
:105090000DD1D0F8880010F0030006D0012867D0A9
:1050A000022854D0032851D164E001204FE07F4909
:1050B0008B420BD1D0F8880010F00C0047D00428A8
:1050C00045D0082852D00C2840D153E078498B4273
:1050D0000BD1D0F8880010F0300038D0102847D01D
:1050E000202843D0302831D144E072498B420BD183
:1050F000D0F8880010F0C00029D0402838D080288F
:1051000034D0C02822D135E06B498B420ED1D0F883
:10511000880010F440701AD0B0F5807F28D0B0F528
:10512000007F23D0B0F5407F10D123E063450DD13F
:10513000D0F8880010F4406009D0B0F5806F17D027
:10514000B0F5006F12D0B0F5406F13D010205B4A5D
:105150005B4F00264FF40041634539D160B102280E
:105160000DD004280DD0082831D10EE00220EEE742
:105170000420ECE70820EAE7FDF72CFC03E01146E9
:1051800003E0FDF74BFC01007BD0606A37F810208C
:105190006768B1FBF2F007EB4703834269D8B0EBD5
:1051A000073F66D8002308461946FBF785F8090231
:1051B00041EA106102027808101871413A46002352
:1051C000FBF77AF83F4AA0F54071914257D950E079
:1051D000E3694FF6EF788B422BD1092849D2DFE8FB
:1051E00000F005080D48254848480E00FDF7F2FB81
:1051F00001E0FDF701FC010001D142E01146606AC7
:1052000037F81000B1FBF0F04100606801EB50018D
:10521000B1FBF0F1A1F1100040452AD84FF6F07231
:1052200001EA0200C1F34201084328E0FDF7F6FB62
:10523000E1E709281DD2DFE800F005080D1C1E1C5F
:105240001C1C0E00FDF7C6FB01E0FDF7D5FB0100BD
:1052500001D116E01146606A37F81000B1FBF0F199
:10526000606801EB5001B1FBF0F0A0F11001414585
:1052700004D9012505E0FDF7D1FBE8E780B22168FC
:10528000C8600120A4F86A0024F8680F2846E66088
:105290002661BDE8F081000000800040F369FFCF87
:1052A000FFF4FF11003801400010024000440040AC
:1052B00000480040004C0040005000400024F40032
:1052C000AE670008FFFC0F002DE9F047994617462E
:1052D0000D4604464FF00008089E33E0701C31D0A4
:1052E000FCF710FCA0EB0900B04218D8BEB1206852
:1052F0000168490726D5802D24D0402D22D0C169D0
:10530000C94309070DD4082505622046FFF766FE4C
:10531000C4F8905084F884800120BDE8F087032011
:10532000FBE7C069C04300050CD421684FF400605E
:1053300008622046FFF752FE2020C4F8900084F84F
:105340008480ECE72068C06935EA000004D00020C2
:10535000B842C3D00020E0E70120F9E7FEE703B43C
:1053600001984100009850EAC12018BF04204A0D5E
:1053700018BF40F0010040F2FF72B2EB515F08BF6E
:1053800040F00200012808BF052002B0704709075D
:10539000090E002804DB00F1E02080F800147047BB
:1053A00000F00F0000F1E02080F8141D70470000AD
:1053B00010B52F499FED2C1B2DED020B84B00598E5
:1053C00020F000408842DCBF00209DED040B32DD60
:1053D0002849884209D1049840B94FF00100FBF7F1
:1053E00011F800F03DFC06B010BD05DB9DED040B8F
:1053F00000F02AFC06B010BD68469DED040B00F0DD
:105400003BF810F0030011D0012818D09DED021BCD
:105410009DED000B02281AD000F04AFA51EC100B57
:1054200000F038FD06B041EC100B10BD9DED021BE5
:105430009DED000B012000F06FFB06B010BD9DED4F
:10544000021B9DED000B00F033FA06B010BD0120E9
:1054500000F062FB51EC100B00F01CFD06B041ECBB
:10546000100B10BD00000000000000000000000054
:10547000FB21E93F0000F07F2DE9F14F04462DEDBF
:10548000020B2DED088B8AB09FEDE70B80ED020B30
:10549000139EE74826F0004585420ADC9DED120B7D
:1054A000002084ED000B0AB0BDEC088B03B0BDE812
:1054B000F08FE0489FEDE0AB9FEDE1BBA84247DDF8
:1054C000E14F9FEDE39B9FEDE48B9DED120B53ECC1
:1054D0001A2B51EC100B002E1CDD01F079F841EC79
:1054E000100BBD4208D053EC1B2B51EC100B01F0FC
:1054F0006FF8C4E900010BE053EC192B51EC100BD1
:1055000001F066F853EC182B01F062F8C4E90001D1
:105510000120C8E700F0CAFC41EC100BBD4208D0E6
:1055200053EC1B2B51EC100B00F0C0FCC4E9000144
:105530000BE053EC192B51EC100B00F0B7FC53ECC3
:10554000182B00F0B3FCC4E900014FF0FF30AAE7CC
:10555000C348A84279DB9DED120B51EC100B00F013
:105560009FFB41EC180B9FEDC00B53EC102B00F090
:1055700025FF9FEDBF1B53EC112B00F097FC00F0B3
:1055800095FE074600F0EFFE41EC190B53EC1A2B89
:1055900000F014FF53EC182B01F00EF841EC180B3F
:1055A00053EC1B2B51EC190B00F008FFDFF8C8A2DD
:1055B00041EC100B4FEA15580125FA4453EC102B1F
:1055C00051EC180B01F004F8032DC4E900013DD0A3
:1055D000C1F30A5005EB4511A8EB000011398142D7
:1055E00034DA0AEB051BB0EE48AA9BED000BF0EE97
:1055F00068AA53EC102B51EC190B00F0DFFE41ECC4
:105600001B0B51EC1A0B53EC1B2B00F0E1FF41EC90
:10561000180B51EC1A0B53EC182B00F0D9FF53EC7C
:105620001B2B00F0D5FF9BED020B41EC1A0B53EC4A
:10563000102B51EC190B00F0C1FE53EC1A2B00F0AB
:10564000C7FF41EC100B6D1CB8E70EE0002EA8BFA1
:105650003846BFF628AF94ED000B51EC100B00F06C
:1056600019FCC4E9000178421DE7C6F3130040F4B9
:10567000801EC6F30A50A0F2F530471100F01F0556
:10568000C5F12000DDF848B0089000200690079092
:105690000520EC467949002D07EB0002794408BF4C
:1056A00051F8221009D051F8223001EB8201AB40B1
:1056B0004A68089922FA01F11943A1FB0E26A1FBC1
:1056C0000B131A449A4234BF0123002303EB06084C
:1056D0000CEB8003D3E901A60E448E4234BF0121B6
:1056E000002192448A4411B1924502D903E09245C7
:1056F00001D2012100E00021C3E901A641444CF898
:105700002010011EA0F10100C4DC029800F100503D
:10571000850F0298DDE903678000DDF8148000F052
:1057200022FE41EC1A0B304600F034FE9FED541B74
:1057300053EC112B00F042FE41EC1B0B384600F0FD
:1057400029FE9FED511B53EC112B00F037FE41EC6D
:10575000180B404600F01EFE9FED4D1B53EC112B25
:1057600000F02CFE41EC190B51EC180B53EC192BEB
:1057700000F09CFB53EC1B2B00F098FB53EC1A2B16
:1057800000F094FBCDE90801002008909DED080B86
:1057900053EC1A2B51EC100B00F01AFF53EC1B2B9F
:1057A00000F016FF53EC182B00F012FF53EC192BEE
:1057B00000F002FF9FED381B53EC112B00F0FEFDB3
:1057C0009FED370B41EC180B53EC102B9DED080BA4
:1057D00051EC100B00F0F2FD53EC182B00F066FBBF
:1057E0009FED310B41EC180B53EC102B9DED080B8A
:1057F00051EC100B00F0E2FD53EC182B00F056FBBF
:1058000041EC100B139810F0004F06D06D4251EC94
:10581000100B00F03FFB41EC100B284684ED000B11
:1058200041E6000000000000000000000000000051
:10583000FB21E93F7CD9024000004054FB21F93FA5
:105840003163621A61B4D03DFB21F93F00000000D2
:105850000000601A61B4D03D7370032E8A19A33B17
:10586000FB2139410000000083C8C96D305FE43F6F
:10587000000000000000E03F62120000B0110000D4
:10588000000000000000103E000000000000103C7E
:10589000000000000000103A182D4454FB21F93D8F
:1058A0003326A611460B113C00000054FB21F93DA4
:1058B00010B52DED040B2DED088B82B0B0EE419AA2
:1058C000F0EE619A0B9820F000449FED4BABB4F1E1
:1058D000795F11DA9DED0A0B51EC100B00F0E6FC3C
:1058E000002801BFB0EE4A0AF0EE6A0A02B0BDEC31
:1058F000088B04BF04B010BD9DED0A0B53EC102BB8
:1059000051EC100B00F05AFD41EC180B3C480621FD
:10591000B0EE480AF0EE680A784400F081F853ECE3
:10592000182B51EC100B00F049FD9DED0A0B41ECDA
:105930001B0B53EC192B51EC100B00F03FFD41EC0D
:10594000190B53EC1B2B51EC180B00F037FD53ECEB
:10595000192B00F03DFE9FED2C0B41EC190B53EC85
:10596000102B51EC180B00F029FD41EC100B2848CE
:10597000844210DA53EC192B51EC100B00F028FE86
:1059800053EC1A2B00F018FE41EC100B02B0BDECEA
:10599000088B04B010BD1F48A042BCBF9FED1E1B6A
:1059A0008DED001B06DBA4F5001001900020009097
:1059B0009DED001B51EC100B53EC112B00F008FE79
:1059C0009DED000B41EC180B53EC102B51EC1A0B16
:1059D00000F0FEFD41EC1A0B53EC192B51EC180BA7
:1059E00000F0F6FD53EC1A2B00F0E6FD41EC100B35
:1059F000CCE7000000000000000000000000F03FC5
:105A0000D40E000000000000000000000000E03F95
:105A10003333D33F0000E93F000000000000D23FD5
:105A200070B504462DED028B4D1E00EBC500B0EEA7
:105A3000408AF0EE608A90ED000B35F0060017D03A
:105A400053EC182B51EC100B00F0B8FC41EC100B90
:105A50006D1E04EBC50090ED001B51EC100B53ECD8
:105A6000112B00F023FA41EC100B35F00600E7D1C2
:105A7000022D36D0042D1CD0062D1CBFBDEC028B90
:105A800070BD53EC182B51EC100B00F097FC94ED0B
:105A90000A1B53EC112B00F009FA53EC182B00F001
:105AA0008DFC94ED081B53EC112B00F0FFF941EC39
:105AB000100B53EC182B51EC100B00F07FFC94ED05
:105AC000061B53EC112B00F0F1F953EC182B00F0EE
:105AD00075FC94ED040B53EC102B00F0E7F941EC4E
